{"contracts/Payement.sol":{"Escrow":{"abi":[{"inputs":[{"internalType":"address","name":"_driver","type":"address"},{"internalType":"uint256","name":"_releaseTimeout","type":"uint256"},{"internalType":"uint256","name":"_refundTimeout","type":"uint256"}],"stateMutability":"nonpayable","type":"constructor"},{"inputs":[],"name":"AlreadyCompleted","type":"error"},{"inputs":[],"name":"NotDriver","type":"error"},{"inputs":[],"name":"NotPassenger","type":"error"},{"inputs":[],"name":"ReentrancyGuardReentrantCall","type":"error"},{"inputs":[],"name":"RefundTimeoutNotReached","type":"error"},{"inputs":[],"name":"RefundTimeoutPassed","type":"error"},{"inputs":[],"name":"ReleaseTimeoutNotReached","type":"error"},{"inputs":[],"name":"ReleaseTimeoutPassed","type":"error"},{"inputs":[],"name":"ZeroDeposit","type":"error"},{"anonymous":false,"inputs":[{"indexed":true,"internalType":"address","name":"passenger","type":"address"},{"indexed":false,"internalType":"uint256","name":"amount","type":"uint256"},{"indexed":false,"internalType":"uint256","name":"timestamp","type":"uint256"}],"name":"Deposited","type":"event"},{"anonymous":false,"inputs":[{"indexed":true,"internalType":"address","name":"passenger","type":"address"},{"indexed":false,"internalType":"uint256","name":"amount","type":"uint256"},{"indexed":false,"internalType":"uint256","name":"timestamp","type":"uint256"}],"name":"Refunded","type":"event"},{"anonymous":false,"inputs":[{"indexed":true,"internalType":"address","name":"driver","type":"address"},{"indexed":false,"internalType":"uint256","name":"amount","type":"uint256"},{"indexed":false,"internalType":"uint256","name":"fee","type":"uint256"},{"indexed":true,"internalType":"address","name":"feeRecipient","type":"address"},{"indexed":false,"internalType":"uint256","name":"timestamp","type":"uint256"}],"name":"Released","type":"event"},{"inputs":[],"name":"amount","outputs":[{"internalType":"uint256","name":"","type":"uint256"}],"stateMutability":"view","type":"function"},{"inputs":[],"name":"approveRelease","outputs":[],"stateMutability":"nonpayable","type":"function"},{"inputs":[],"name":"autoRefund","outputs":[],"stateMutability":"nonpayable","type":"function"},{"inputs":[],"name":"autoRelease","outputs":[],"stateMutability":"nonpayable","type":"function"},{"inputs":[],"name":"deposit","outputs":[],"stateMutability":"payable","type":"function"},{"inputs":[],"name":"depositTimestamp","outputs":[{"internalType":"uint256","name":"","type":"uint256"}],"stateMutability":"view","type":"function"},{"inputs":[],"name":"driver","outputs":[{"internalType":"address","name":"","type":"address"}],"stateMutability":"view","type":"function"},{"inputs":[],"name":"isCompleted","outputs":[{"internalType":"bool","name":"","type":"bool"}],"stateMutability":"view","type":"function"},{"inputs":[],"name":"passenger","outputs":[{"internalType":"address","name":"","type":"address"}],"stateMutability":"view","type":"function"},{"inputs":[],"name":"refund","outputs":[],"stateMutability":"nonpayable","type":"function"},{"inputs":[],"name":"refundTimeout","outputs":[{"internalType":"uint256","name":"","type":"uint256"}],"stateMutability":"view","type":"function"},{"inputs":[],"name":"releaseTimeout","outputs":[{"internalType":"uint256","name":"","type":"uint256"}],"stateMutability":"view","type":"function"}],"devdoc":{"errors":{"ReentrancyGuardReentrantCall()":[{"details":"Unauthorized reentrant call."}]},"kind":"dev","methods":{"approveRelease()":{"details":"Passenger approves release of funds to driver before timeout."},"autoRefund()":{"details":"Passenger can auto-refund funds after refundTimeout."},"autoRelease()":{"details":"Driver can auto-release funds after releaseTimeout."},"constructor":{"details":"Constructor sets the driver and initializes timeouts.","params":{"_driver":"Address of the driver.","_refundTimeout":"Timeout in seconds after which passenger can auto-refund.","_releaseTimeout":"Timeout in seconds after which driver can auto-claim."}},"deposit()":{"details":"Deposit ETH into escrow by passenger. Records deposit timestamp."},"refund()":{"details":"Driver refunds passenger before refund timeout."}},"version":1},"evm":{"assembly":"    /* \"contracts/Payement.sol\":126:5236  contract Escrow is ReentrancyGuard {... */\n  mstore(0x40, 0xc0)\n    /* \"contracts/Payement.sol\":1805:2176  constructor(address _driver, uint256 _releaseTimeout, uint256 _refundTimeout) {... */\n  callvalue\n  dup1\n  iszero\n  tag_1\n  jumpi\n  0x00\n  dup1\n  revert\ntag_1:\n  pop\n  mload(0x40)\n  sub(codesize, bytecodeSize)\n  dup1\n  bytecodeSize\n  dup4\n  codecopy\n  dup2\n  add\n  0x40\n  dup2\n  swap1\n  mstore\n  tag_2\n  swap2\n  tag_3\n  jump\t// in\ntag_2:\n    /* \"@openzeppelin/contracts/utils/ReentrancyGuard.sol\":1857:1858  1 */\n  0x01\n    /* \"@openzeppelin/contracts/utils/ReentrancyGuard.sol\":2061:2068  _status */\n  0x00\n    /* \"@openzeppelin/contracts/utils/ReentrancyGuard.sol\":2061:2082  _status = NOT_ENTERED */\n  sstore\n  sub(shl(0xa0, 0x01), 0x01)\n    /* \"contracts/Payement.sol\":1901:1922  _driver != address(0) */\n  dup4\n  and\n    /* \"contracts/Payement.sol\":1893:1949  require(_driver != address(0), \"Invalid driver address\") */\n  tag_8\n  jumpi\n  mload(0x40)\n  shl(0xe5, 0x461bcd)\n  dup2\n  mstore\n    /* \"#utility.yul\":633:635   */\n  0x20\n    /* \"contracts/Payement.sol\":1893:1949  require(_driver != address(0), \"Invalid driver address\") */\n  0x04\n  dup3\n  add\n    /* \"#utility.yul\":615:636   */\n  mstore\n    /* \"#utility.yul\":672:674   */\n  0x16\n    /* \"#utility.yul\":652:670   */\n  0x24\n  dup3\n  add\n    /* \"#utility.yul\":645:675   */\n  mstore\n    /* \"#utility.yul\":711:735   */\n  0x496e76616c696420647269766572206164647265737300000000000000000000\n    /* \"#utility.yul\":691:709   */\n  0x44\n  dup3\n  add\n    /* \"#utility.yul\":684:736   */\n  mstore\n    /* \"#utility.yul\":753:771   */\n  0x64\n  add\n    /* \"contracts/Payement.sol\":1893:1949  require(_driver != address(0), \"Invalid driver address\") */\ntag_9:\n  mload(0x40)\n  dup1\n  swap2\n  sub\n  swap1\n  revert\ntag_8:\n    /* \"contracts/Payement.sol\":1985:1986  0 */\n  0x00\n    /* \"contracts/Payement.sol\":1967:1982  _releaseTimeout */\n  dup3\n    /* \"contracts/Payement.sol\":1967:1986  _releaseTimeout > 0 */\n  gt\n    /* \"contracts/Payement.sol\":1967:2008  _releaseTimeout > 0 && _refundTimeout > 0 */\n  dup1\n  iszero\n  tag_11\n  jumpi\n  pop\n    /* \"contracts/Payement.sol\":2007:2008  0 */\n  0x00\n    /* \"contracts/Payement.sol\":1990:2004  _refundTimeout */\n  dup2\n    /* \"contracts/Payement.sol\":1990:2008  _refundTimeout > 0 */\n  gt\n    /* \"contracts/Payement.sol\":1967:2008  _releaseTimeout > 0 && _refundTimeout > 0 */\ntag_11:\n    /* \"contracts/Payement.sol\":1959:2029  require(_releaseTimeout > 0 && _refundTimeout > 0, \"Invalid timeouts\") */\n  tag_12\n  jumpi\n  mload(0x40)\n  shl(0xe5, 0x461bcd)\n  dup2\n  mstore\n    /* \"#utility.yul\":984:986   */\n  0x20\n    /* \"contracts/Payement.sol\":1959:2029  require(_releaseTimeout > 0 && _refundTimeout > 0, \"Invalid timeouts\") */\n  0x04\n  dup3\n  add\n    /* \"#utility.yul\":966:987   */\n  mstore\n    /* \"#utility.yul\":1023:1025   */\n  0x10\n    /* \"#utility.yul\":1003:1021   */\n  0x24\n  dup3\n  add\n    /* \"#utility.yul\":996:1026   */\n  mstore\n  shl(0x80, 0x496e76616c69642074696d656f757473)\n    /* \"#utility.yul\":1042:1060   */\n  0x44\n  dup3\n  add\n    /* \"#utility.yul\":1035:1081   */\n  mstore\n    /* \"#utility.yul\":1098:1116   */\n  0x64\n  add\n    /* \"contracts/Payement.sol\":1959:2029  require(_releaseTimeout > 0 && _refundTimeout > 0, \"Invalid timeouts\") */\n  tag_9\n    /* \"#utility.yul\":782:1122   */\n  jump\n    /* \"contracts/Payement.sol\":1959:2029  require(_releaseTimeout > 0 && _refundTimeout > 0, \"Invalid timeouts\") */\ntag_12:\n    /* \"contracts/Payement.sol\":2051:2061  msg.sender */\n  caller\n    /* \"contracts/Payement.sol\":2039:2061  passenger = msg.sender */\n  0x80\n  mstore\n  sub(shl(0xa0, 0x01), 0x01)\n    /* \"contracts/Payement.sol\":2071:2087  driver = _driver */\n  swap3\n  swap1\n  swap3\n  and\n  0xa0\n  mstore\n    /* \"contracts/Payement.sol\":2097:2111  releaseTimeout */\n  0x04\n    /* \"contracts/Payement.sol\":2097:2129  releaseTimeout = _releaseTimeout */\n  sstore\n    /* \"contracts/Payement.sol\":2139:2152  refundTimeout */\n  0x05\n    /* \"contracts/Payement.sol\":2139:2169  refundTimeout = _refundTimeout */\n  sstore\n    /* \"contracts/Payement.sol\":126:5236  contract Escrow is ReentrancyGuard {... */\n  jump(tag_16)\n    /* \"#utility.yul\":14:426   */\ntag_3:\n    /* \"#utility.yul\":102:108   */\n  0x00\n    /* \"#utility.yul\":110:116   */\n  dup1\n    /* \"#utility.yul\":118:124   */\n  0x00\n    /* \"#utility.yul\":171:173   */\n  0x60\n    /* \"#utility.yul\":159:168   */\n  dup5\n    /* \"#utility.yul\":150:157   */\n  dup7\n    /* \"#utility.yul\":146:169   */\n  sub\n    /* \"#utility.yul\":142:174   */\n  slt\n    /* \"#utility.yul\":139:191   */\n  iszero\n  tag_18\n  jumpi\n    /* \"#utility.yul\":187:188   */\n  0x00\n    /* \"#utility.yul\":184:185   */\n  dup1\n    /* \"#utility.yul\":177:189   */\n  revert\n    /* \"#utility.yul\":139:191   */\ntag_18:\n    /* \"#utility.yul\":213:229   */\n  dup4\n  mload\n  sub(shl(0xa0, 0x01), 0x01)\n    /* \"#utility.yul\":258:289   */\n  dup2\n  and\n    /* \"#utility.yul\":248:290   */\n  dup2\n  eq\n    /* \"#utility.yul\":238:308   */\n  tag_19\n  jumpi\n    /* \"#utility.yul\":304:305   */\n  0x00\n    /* \"#utility.yul\":301:302   */\n  dup1\n    /* \"#utility.yul\":294:306   */\n  revert\n    /* \"#utility.yul\":238:308   */\ntag_19:\n    /* \"#utility.yul\":372:374   */\n  0x20\n    /* \"#utility.yul\":357:375   */\n  dup6\n  add\n    /* \"#utility.yul\":351:376   */\n  mload\n    /* \"#utility.yul\":416:418   */\n  0x40\n    /* \"#utility.yul\":401:419   */\n  swap1\n  swap6\n  add\n    /* \"#utility.yul\":395:420   */\n  mload\n    /* \"#utility.yul\":327:332   */\n  swap1\n  swap7\n    /* \"#utility.yul\":351:376   */\n  swap5\n  swap6\n  pop\n    /* \"#utility.yul\":395:420   */\n  swap4\n    /* \"#utility.yul\":14:426   */\n  swap3\n  pop\n  pop\n  pop\n  jump\t// out\n    /* \"#utility.yul\":782:1122   */\ntag_16:\n    /* \"contracts/Payement.sol\":126:5236  contract Escrow is ReentrancyGuard {... */\n  mload(0x80)\n  mload(0xa0)\n  codecopy(0x00, dataOffset(sub_0), dataSize(sub_0))\n  0x00\n  assignImmutable(\"0x881472a5783e16aed4d4ff91eeebe17d420d379d078fc85dddb0a3a55a9abffe\")\n  0x00\n  assignImmutable(\"0x4393e7114eb674248a1480712950c28cb06e118e040859a2eafa3ca8a6dfbd69\")\n  return(0x00, dataSize(sub_0))\nstop\n\nsub_0: assembly {\n        /* \"contracts/Payement.sol\":126:5236  contract Escrow is ReentrancyGuard {... */\n      mstore(0x40, 0x80)\n      jumpi(tag_1, lt(calldatasize, 0x04))\n      shr(0xe0, calldataload(0x00))\n      dup1\n      0xaa8c217c\n      gt\n      tag_14\n      jumpi\n      dup1\n      0xaa8c217c\n      eq\n      tag_8\n      jumpi\n      dup1\n      0xb723ae75\n      eq\n      tag_9\n      jumpi\n      dup1\n      0xc11ae86f\n      eq\n      tag_10\n      jumpi\n      dup1\n      0xd0e30db0\n      eq\n      tag_11\n      jumpi\n      dup1\n      0xdba26783\n      eq\n      tag_12\n      jumpi\n      dup1\n      0xfa391c64\n      eq\n      tag_13\n      jumpi\n      0x00\n      dup1\n      revert\n    tag_14:\n      dup1\n      0x1e31a6dd\n      eq\n      tag_2\n      jumpi\n      dup1\n      0x3a10ec1a\n      eq\n      tag_3\n      jumpi\n      dup1\n      0x590e1ae3\n      eq\n      tag_4\n      jumpi\n      dup1\n      0x6ecc5d62\n      eq\n      tag_5\n      jumpi\n      dup1\n      0xa36693b1\n      eq\n      tag_6\n      jumpi\n      dup1\n      0xa5854123\n      eq\n      tag_7\n      jumpi\n    tag_1:\n      0x00\n      dup1\n      revert\n        /* \"contracts/Payement.sol\":2648:3451  function approveRelease() external onlyPassenger notCompleted nonReentrant {... */\n    tag_2:\n      callvalue\n      dup1\n      iszero\n      tag_15\n      jumpi\n      0x00\n      dup1\n      revert\n    tag_15:\n      pop\n      tag_16\n      tag_17\n      jump\t// in\n    tag_16:\n      stop\n        /* \"contracts/Payement.sol\":839:868  uint256 public releaseTimeout */\n    tag_3:\n      callvalue\n      dup1\n      iszero\n      tag_18\n      jumpi\n      0x00\n      dup1\n      revert\n    tag_18:\n      pop\n      tag_19\n      sload(0x04)\n      dup2\n      jump\n    tag_19:\n      mload(0x40)\n        /* \"#utility.yul\":160:185   */\n      swap1\n      dup2\n      mstore\n        /* \"#utility.yul\":148:150   */\n      0x20\n        /* \"#utility.yul\":133:151   */\n      add\n        /* \"contracts/Payement.sol\":839:868  uint256 public releaseTimeout */\n    tag_21:\n      mload(0x40)\n      dup1\n      swap2\n      sub\n      swap1\n      return\n        /* \"contracts/Payement.sol\":3533:3891  function refund() external onlyDriver notCompleted nonReentrant {... */\n    tag_4:\n      callvalue\n      dup1\n      iszero\n      tag_23\n      jumpi\n      0x00\n      dup1\n      revert\n    tag_23:\n      pop\n      tag_16\n      tag_25\n      jump\t// in\n        /* \"contracts/Payement.sol\":709:740  address public immutable driver */\n    tag_5:\n      callvalue\n      dup1\n      iszero\n      tag_26\n      jumpi\n      0x00\n      dup1\n      revert\n    tag_26:\n      pop\n      tag_27\n      immutable(\"0x881472a5783e16aed4d4ff91eeebe17d420d379d078fc85dddb0a3a55a9abffe\")\n      dup2\n      jump\n    tag_27:\n      mload(0x40)\n      sub(shl(0xa0, 0x01), 0x01)\n        /* \"#utility.yul\":360:392   */\n      swap1\n      swap2\n      and\n        /* \"#utility.yul\":342:393   */\n      dup2\n      mstore\n        /* \"#utility.yul\":330:332   */\n      0x20\n        /* \"#utility.yul\":315:333   */\n      add\n        /* \"contracts/Payement.sol\":709:740  address public immutable driver */\n      tag_21\n        /* \"#utility.yul\":196:399   */\n      jump\n        /* \"contracts/Payement.sol\":3977:4774  function autoRelease() external onlyDriver notCompleted nonReentrant {... */\n    tag_6:\n      callvalue\n      dup1\n      iszero\n      tag_31\n      jumpi\n      0x00\n      dup1\n      revert\n    tag_31:\n      pop\n      tag_16\n      tag_33\n      jump\t// in\n        /* \"contracts/Payement.sol\":802:833  uint256 public depositTimestamp */\n    tag_7:\n      callvalue\n      dup1\n      iszero\n      tag_34\n      jumpi\n      0x00\n      dup1\n      revert\n    tag_34:\n      pop\n      tag_19\n      sload(0x03)\n      dup2\n      jump\n        /* \"contracts/Payement.sol\":746:767  uint256 public amount */\n    tag_8:\n      callvalue\n      dup1\n      iszero\n      tag_38\n      jumpi\n      0x00\n      dup1\n      revert\n    tag_38:\n      pop\n      tag_19\n      sload(0x01)\n      dup2\n      jump\n        /* \"contracts/Payement.sol\":4861:5234  function autoRefund() external onlyPassenger notCompleted nonReentrant {... */\n    tag_9:\n      callvalue\n      dup1\n      iszero\n      tag_42\n      jumpi\n      0x00\n      dup1\n      revert\n    tag_42:\n      pop\n      tag_16\n      tag_44\n      jump\t// in\n        /* \"contracts/Payement.sol\":669:703  address public immutable passenger */\n    tag_10:\n      callvalue\n      dup1\n      iszero\n      tag_45\n      jumpi\n      0x00\n      dup1\n      revert\n    tag_45:\n      pop\n      tag_27\n      immutable(\"0x4393e7114eb674248a1480712950c28cb06e118e040859a2eafa3ca8a6dfbd69\")\n      dup2\n      jump\n        /* \"contracts/Payement.sol\":2282:2552  function deposit() external payable onlyPassenger notCompleted nonReentrant {... */\n    tag_11:\n      tag_16\n      tag_50\n      jump\t// in\n        /* \"contracts/Payement.sol\":874:902  uint256 public refundTimeout */\n    tag_12:\n      callvalue\n      dup1\n      iszero\n      tag_51\n      jumpi\n      0x00\n      dup1\n      revert\n    tag_51:\n      pop\n      tag_19\n      sload(0x05)\n      dup2\n      jump\n        /* \"contracts/Payement.sol\":773:796  bool public isCompleted */\n    tag_13:\n      callvalue\n      dup1\n      iszero\n      tag_55\n      jumpi\n      0x00\n      dup1\n      revert\n    tag_55:\n      pop\n      sload(0x02)\n      tag_56\n      swap1\n      0xff\n      and\n      dup2\n      jump\n    tag_56:\n      mload(0x40)\n        /* \"#utility.yul\":569:583   */\n      swap1\n      iszero\n        /* \"#utility.yul\":562:584   */\n      iszero\n        /* \"#utility.yul\":544:585   */\n      dup2\n      mstore\n        /* \"#utility.yul\":532:534   */\n      0x20\n        /* \"#utility.yul\":517:535   */\n      add\n        /* \"contracts/Payement.sol\":773:796  bool public isCompleted */\n      tag_21\n        /* \"#utility.yul\":404:591   */\n      jump\n        /* \"contracts/Payement.sol\":2648:3451  function approveRelease() external onlyPassenger notCompleted nonReentrant {... */\n    tag_17:\n        /* \"contracts/Payement.sol\":1237:1247  msg.sender */\n      caller\n      sub(shl(0xa0, 0x01), 0x01)\n        /* \"contracts/Payement.sol\":1251:1260  passenger */\n      immutable(\"0x4393e7114eb674248a1480712950c28cb06e118e040859a2eafa3ca8a6dfbd69\")\n        /* \"contracts/Payement.sol\":1237:1260  msg.sender != passenger */\n      and\n      eq\n        /* \"contracts/Payement.sol\":1233:1283  if (msg.sender != passenger) revert NotPassenger() */\n      tag_61\n      jumpi\n        /* \"contracts/Payement.sol\":1269:1283  NotPassenger() */\n      mload(0x40)\n      shl(0xe0, 0x1862871b)\n      dup2\n      mstore\n      0x04\n      add\n      mload(0x40)\n      dup1\n      swap2\n      sub\n      swap1\n      revert\n        /* \"contracts/Payement.sol\":1233:1283  if (msg.sender != passenger) revert NotPassenger() */\n    tag_61:\n        /* \"contracts/Payement.sol\":1445:1456  isCompleted */\n      and(0xff, sload(0x02))\n        /* \"contracts/Payement.sol\":1441:1483  if (isCompleted) revert AlreadyCompleted() */\n      iszero\n      tag_63\n      jumpi\n        /* \"contracts/Payement.sol\":1465:1483  AlreadyCompleted() */\n      mload(0x40)\n      shl(0xe0, 0x195332a5)\n      dup2\n      mstore\n      0x04\n      add\n      mload(0x40)\n      dup1\n      swap2\n      sub\n      swap1\n      revert\n        /* \"contracts/Payement.sol\":1441:1483  if (isCompleted) revert AlreadyCompleted() */\n    tag_63:\n        /* \"@openzeppelin/contracts/utils/ReentrancyGuard.sol\":2500:2521  _nonReentrantBefore() */\n      tag_65\n        /* \"@openzeppelin/contracts/utils/ReentrancyGuard.sol\":2500:2519  _nonReentrantBefore */\n      tag_66\n        /* \"@openzeppelin/contracts/utils/ReentrancyGuard.sol\":2500:2521  _nonReentrantBefore() */\n      jump\t// in\n    tag_65:\n        /* \"contracts/Payement.sol\":2775:2789  releaseTimeout */\n      sload(0x04)\n        /* \"contracts/Payement.sol\":2756:2772  depositTimestamp */\n      sload(0x03)\n        /* \"contracts/Payement.sol\":2756:2789  depositTimestamp + releaseTimeout */\n      tag_68\n      swap2\n      swap1\n      tag_69\n      jump\t// in\n    tag_68:\n        /* \"contracts/Payement.sol\":2737:2752  block.timestamp */\n      timestamp\n        /* \"contracts/Payement.sol\":2737:2789  block.timestamp >= depositTimestamp + releaseTimeout */\n      lt\n        /* \"contracts/Payement.sol\":2733:2820  if (block.timestamp >= depositTimestamp + releaseTimeout) revert ReleaseTimeoutPassed() */\n      tag_70\n      jumpi\n        /* \"contracts/Payement.sol\":2798:2820  ReleaseTimeoutPassed() */\n      mload(0x40)\n      shl(0xe2, 0x2462667b)\n      dup2\n      mstore\n      0x04\n      add\n      mload(0x40)\n      dup1\n      swap2\n      sub\n      swap1\n      revert\n        /* \"contracts/Payement.sol\":2733:2820  if (block.timestamp >= depositTimestamp + releaseTimeout) revert ReleaseTimeoutPassed() */\n    tag_70:\n        /* \"contracts/Payement.sol\":2830:2841  isCompleted */\n      0x02\n        /* \"contracts/Payement.sol\":2830:2848  isCompleted = true */\n      dup1\n      sload\n      not(0xff)\n      and\n        /* \"contracts/Payement.sol\":2844:2848  true */\n      0x01\n        /* \"contracts/Payement.sol\":2830:2848  isCompleted = true */\n      swap1\n      dup2\n      or\n      swap1\n      swap2\n      sstore\n        /* \"contracts/Payement.sol\":2921:2927  amount */\n      sload\n        /* \"contracts/Payement.sol\":2830:2841  isCompleted */\n      0x00\n      swap1\n        /* \"contracts/Payement.sol\":2935:2938  100 */\n      0x64\n      swap1\n        /* \"contracts/Payement.sol\":2921:2931  amount * 5 */\n      tag_71\n      swap1\n        /* \"contracts/Payement.sol\":2930:2931  5 */\n      0x05\n        /* \"contracts/Payement.sol\":2921:2931  amount * 5 */\n      tag_72\n      jump\t// in\n    tag_71:\n        /* \"contracts/Payement.sol\":2920:2938  (amount * 5) / 100 */\n      tag_73\n      swap2\n      swap1\n      tag_74\n      jump\t// in\n    tag_73:\n        /* \"contracts/Payement.sol\":2906:2938  uint256 fee = (amount * 5) / 100 */\n      swap1\n      pop\n        /* \"contracts/Payement.sol\":2948:2968  uint256 driverAmount */\n      0x00\n        /* \"contracts/Payement.sol\":2980:2983  fee */\n      dup2\n        /* \"contracts/Payement.sol\":2971:2977  amount */\n      sload(0x01)\n        /* \"contracts/Payement.sol\":2971:2983  amount - fee */\n      tag_75\n      swap2\n      swap1\n      tag_76\n      jump\t// in\n    tag_75:\n        /* \"contracts/Payement.sol\":2948:2983  uint256 driverAmount = amount - fee */\n      swap1\n      pop\n        /* \"contracts/Payement.sol\":3029:3041  bool success */\n      0x00\n        /* \"contracts/Payement.sol\":3047:3053  driver */\n      immutable(\"0x881472a5783e16aed4d4ff91eeebe17d420d379d078fc85dddb0a3a55a9abffe\")\n      sub(shl(0xa0, 0x01), 0x01)\n        /* \"contracts/Payement.sol\":3047:3058  driver.call */\n      and\n        /* \"contracts/Payement.sol\":3066:3078  driverAmount */\n      dup3\n        /* \"contracts/Payement.sol\":3047:3083  driver.call{value: driverAmount}(\"\") */\n      mload(0x40)\n      0x00\n      mload(0x40)\n      dup1\n      dup4\n      sub\n      dup2\n      dup6\n      dup8\n      gas\n      call\n      swap3\n      pop\n      pop\n      pop\n      returndatasize\n      dup1\n      0x00\n      dup2\n      eq\n      tag_81\n      jumpi\n      mload(0x40)\n      swap2\n      pop\n      and(add(returndatasize, 0x3f), not(0x1f))\n      dup3\n      add\n      0x40\n      mstore\n      returndatasize\n      dup3\n      mstore\n      returndatasize\n      0x00\n      0x20\n      dup5\n      add\n      returndatacopy\n      jump(tag_80)\n    tag_81:\n      0x60\n      swap2\n      pop\n    tag_80:\n      pop\n        /* \"contracts/Payement.sol\":3028:3083  (bool success, ) = driver.call{value: driverAmount}(\"\") */\n      pop\n      swap1\n      pop\n        /* \"contracts/Payement.sol\":3101:3108  success */\n      dup1\n        /* \"contracts/Payement.sol\":3093:3135  require(success, \"Driver transfer failed\") */\n      tag_82\n      jumpi\n      mload(0x40)\n      shl(0xe5, 0x461bcd)\n      dup2\n      mstore\n        /* \"#utility.yul\":1798:1800   */\n      0x20\n        /* \"contracts/Payement.sol\":3093:3135  require(success, \"Driver transfer failed\") */\n      0x04\n      dup3\n      add\n        /* \"#utility.yul\":1780:1801   */\n      mstore\n        /* \"#utility.yul\":1837:1839   */\n      0x16\n        /* \"#utility.yul\":1817:1835   */\n      0x24\n      dup3\n      add\n        /* \"#utility.yul\":1810:1840   */\n      mstore\n      shl(0x52, 0x111c9a5d995c881d1c985b9cd9995c8819985a5b1959)\n        /* \"#utility.yul\":1856:1874   */\n      0x44\n      dup3\n      add\n        /* \"#utility.yul\":1849:1901   */\n      mstore\n        /* \"#utility.yul\":1918:1936   */\n      0x64\n      add\n        /* \"contracts/Payement.sol\":3093:3135  require(success, \"Driver transfer failed\") */\n    tag_83:\n      mload(0x40)\n      dup1\n      swap2\n      sub\n      swap1\n      revert\n    tag_82:\n        /* \"contracts/Payement.sol\":3271:3309  payable(platform).call{value: fee}(\"\") */\n      mload(0x40)\n        /* \"contracts/Payement.sol\":3205:3247  0xcb7f49a123087aB9B6594A3b3169c2cc6d15797a */\n      0xcb7f49a123087ab9b6594a3b3169c2cc6d15797a\n      swap1\n      dup2\n      swap1\n        /* \"contracts/Payement.sol\":3301:3304  fee */\n      dup6\n      swap1\n        /* \"contracts/Payement.sol\":3271:3309  payable(platform).call{value: fee}(\"\") */\n      0x00\n      dup2\n      dup2\n      dup2\n        /* \"contracts/Payement.sol\":3301:3304  fee */\n      dup6\n        /* \"contracts/Payement.sol\":3205:3247  0xcb7f49a123087aB9B6594A3b3169c2cc6d15797a */\n      dup8\n        /* \"contracts/Payement.sol\":3271:3309  payable(platform).call{value: fee}(\"\") */\n      gas\n      call\n      swap3\n      pop\n      pop\n      pop\n      returndatasize\n      dup1\n      0x00\n      dup2\n      eq\n      tag_88\n      jumpi\n      mload(0x40)\n      swap2\n      pop\n      and(add(returndatasize, 0x3f), not(0x1f))\n      dup3\n      add\n      0x40\n      mstore\n      returndatasize\n      dup3\n      mstore\n      returndatasize\n      0x00\n      0x20\n      dup5\n      add\n      returndatacopy\n      jump(tag_87)\n    tag_88:\n      0x60\n      swap2\n      pop\n    tag_87:\n      pop\n        /* \"contracts/Payement.sol\":3257:3309  (success, ) = payable(platform).call{value: fee}(\"\") */\n      pop\n      dup1\n      swap3\n      pop\n      pop\n        /* \"contracts/Payement.sol\":3327:3334  success */\n      dup2\n        /* \"contracts/Payement.sol\":3319:3358  require(success, \"Fee transfer failed\") */\n      tag_89\n      jumpi\n      mload(0x40)\n      shl(0xe5, 0x461bcd)\n      dup2\n      mstore\n        /* \"#utility.yul\":2149:2151   */\n      0x20\n        /* \"contracts/Payement.sol\":3319:3358  require(success, \"Fee transfer failed\") */\n      0x04\n      dup3\n      add\n        /* \"#utility.yul\":2131:2152   */\n      mstore\n        /* \"#utility.yul\":2188:2190   */\n      0x13\n        /* \"#utility.yul\":2168:2186   */\n      0x24\n      dup3\n      add\n        /* \"#utility.yul\":2161:2191   */\n      mstore\n      shl(0x6a, 0x119959481d1c985b9cd9995c8819985a5b1959)\n        /* \"#utility.yul\":2207:2225   */\n      0x44\n      dup3\n      add\n        /* \"#utility.yul\":2200:2249   */\n      mstore\n        /* \"#utility.yul\":2266:2284   */\n      0x64\n      add\n        /* \"contracts/Payement.sol\":3319:3358  require(success, \"Fee transfer failed\") */\n      tag_83\n        /* \"#utility.yul\":1947:2290   */\n      jump\n        /* \"contracts/Payement.sol\":3319:3358  require(success, \"Fee transfer failed\") */\n    tag_89:\n        /* \"contracts/Payement.sol\":3418:3426  platform */\n      dup1\n      sub(shl(0xa0, 0x01), 0x01)\n        /* \"contracts/Payement.sol\":3382:3444  Released(driver, driverAmount, fee, platform, block.timestamp) */\n      and\n        /* \"contracts/Payement.sol\":3391:3397  driver */\n      immutable(\"0x881472a5783e16aed4d4ff91eeebe17d420d379d078fc85dddb0a3a55a9abffe\")\n      sub(shl(0xa0, 0x01), 0x01)\n        /* \"contracts/Payement.sol\":3382:3444  Released(driver, driverAmount, fee, platform, block.timestamp) */\n      and\n      0x230c988e3934b87df8f6cfbdea23b953743e4b315eb6ba859a72703e6f356a76\n        /* \"contracts/Payement.sol\":3399:3411  driverAmount */\n      dup6\n        /* \"contracts/Payement.sol\":3413:3416  fee */\n      dup8\n        /* \"contracts/Payement.sol\":3428:3443  block.timestamp */\n      timestamp\n        /* \"contracts/Payement.sol\":3382:3444  Released(driver, driverAmount, fee, platform, block.timestamp) */\n      mload(0x40)\n      tag_92\n      swap4\n      swap3\n      swap2\n      swap1\n        /* \"#utility.yul\":2497:2522   */\n      swap3\n      dup4\n      mstore\n        /* \"#utility.yul\":2553:2555   */\n      0x20\n        /* \"#utility.yul\":2538:2556   */\n      dup4\n      add\n        /* \"#utility.yul\":2531:2565   */\n      swap2\n      swap1\n      swap2\n      mstore\n        /* \"#utility.yul\":2596:2598   */\n      0x40\n        /* \"#utility.yul\":2581:2599   */\n      dup3\n      add\n        /* \"#utility.yul\":2574:2608   */\n      mstore\n        /* \"#utility.yul\":2485:2487   */\n      0x60\n        /* \"#utility.yul\":2470:2488   */\n      add\n      swap1\n        /* \"#utility.yul\":2295:2614   */\n      jump\n        /* \"contracts/Payement.sol\":3382:3444  Released(driver, driverAmount, fee, platform, block.timestamp) */\n    tag_92:\n      mload(0x40)\n      dup1\n      swap2\n      sub\n      swap1\n      log3\n        /* \"contracts/Payement.sol\":2723:3451  {... */\n      pop\n      pop\n      pop\n      pop\n        /* \"@openzeppelin/contracts/utils/ReentrancyGuard.sol\":2542:2562  _nonReentrantAfter() */\n      tag_94\n        /* \"@openzeppelin/contracts/utils/ReentrancyGuard.sol\":1857:1858  1 */\n      0x01\n        /* \"@openzeppelin/contracts/utils/ReentrancyGuard.sol\":3068:3075  _status */\n      0x00\n        /* \"@openzeppelin/contracts/utils/ReentrancyGuard.sol\":3068:3089  _status = NOT_ENTERED */\n      sstore\n        /* \"@openzeppelin/contracts/utils/ReentrancyGuard.sol\":2888:3096  function _nonReentrantAfter() private {... */\n      jump\n        /* \"@openzeppelin/contracts/utils/ReentrancyGuard.sol\":2542:2562  _nonReentrantAfter() */\n    tag_94:\n        /* \"contracts/Payement.sol\":2648:3451  function approveRelease() external onlyPassenger notCompleted nonReentrant {... */\n      jump\t// out\n        /* \"contracts/Payement.sol\":3533:3891  function refund() external onlyDriver notCompleted nonReentrant {... */\n    tag_25:\n        /* \"contracts/Payement.sol\":1343:1353  msg.sender */\n      caller\n      sub(shl(0xa0, 0x01), 0x01)\n        /* \"contracts/Payement.sol\":1357:1363  driver */\n      immutable(\"0x881472a5783e16aed4d4ff91eeebe17d420d379d078fc85dddb0a3a55a9abffe\")\n        /* \"contracts/Payement.sol\":1343:1363  msg.sender != driver */\n      and\n      eq\n        /* \"contracts/Payement.sol\":1339:1383  if (msg.sender != driver) revert NotDriver() */\n      tag_97\n      jumpi\n        /* \"contracts/Payement.sol\":1372:1383  NotDriver() */\n      mload(0x40)\n      shl(0xe1, 0x06073237)\n      dup2\n      mstore\n      0x04\n      add\n      mload(0x40)\n      dup1\n      swap2\n      sub\n      swap1\n      revert\n        /* \"contracts/Payement.sol\":1339:1383  if (msg.sender != driver) revert NotDriver() */\n    tag_97:\n        /* \"contracts/Payement.sol\":1445:1456  isCompleted */\n      and(0xff, sload(0x02))\n        /* \"contracts/Payement.sol\":1441:1483  if (isCompleted) revert AlreadyCompleted() */\n      iszero\n      tag_99\n      jumpi\n        /* \"contracts/Payement.sol\":1465:1483  AlreadyCompleted() */\n      mload(0x40)\n      shl(0xe0, 0x195332a5)\n      dup2\n      mstore\n      0x04\n      add\n      mload(0x40)\n      dup1\n      swap2\n      sub\n      swap1\n      revert\n        /* \"contracts/Payement.sol\":1441:1483  if (isCompleted) revert AlreadyCompleted() */\n    tag_99:\n        /* \"@openzeppelin/contracts/utils/ReentrancyGuard.sol\":2500:2521  _nonReentrantBefore() */\n      tag_101\n        /* \"@openzeppelin/contracts/utils/ReentrancyGuard.sol\":2500:2519  _nonReentrantBefore */\n      tag_66\n        /* \"@openzeppelin/contracts/utils/ReentrancyGuard.sol\":2500:2521  _nonReentrantBefore() */\n      jump\t// in\n    tag_101:\n        /* \"contracts/Payement.sol\":3649:3662  refundTimeout */\n      sload(0x05)\n        /* \"contracts/Payement.sol\":3630:3646  depositTimestamp */\n      sload(0x03)\n        /* \"contracts/Payement.sol\":3630:3662  depositTimestamp + refundTimeout */\n      tag_103\n      swap2\n      swap1\n      tag_69\n      jump\t// in\n    tag_103:\n        /* \"contracts/Payement.sol\":3611:3626  block.timestamp */\n      timestamp\n        /* \"contracts/Payement.sol\":3611:3662  block.timestamp >= depositTimestamp + refundTimeout */\n      lt\n        /* \"contracts/Payement.sol\":3607:3692  if (block.timestamp >= depositTimestamp + refundTimeout) revert RefundTimeoutPassed() */\n      tag_104\n      jumpi\n        /* \"contracts/Payement.sol\":3671:3692  RefundTimeoutPassed() */\n      mload(0x40)\n      shl(0xe1, 0x6c2eb437)\n      dup2\n      mstore\n      0x04\n      add\n      mload(0x40)\n      dup1\n      swap2\n      sub\n      swap1\n      revert\n        /* \"contracts/Payement.sol\":3607:3692  if (block.timestamp >= depositTimestamp + refundTimeout) revert RefundTimeoutPassed() */\n    tag_104:\n        /* \"contracts/Payement.sol\":3702:3713  isCompleted */\n      0x02\n        /* \"contracts/Payement.sol\":3702:3720  isCompleted = true */\n      dup1\n      sload\n      not(0xff)\n      and\n        /* \"contracts/Payement.sol\":3716:3720  true */\n      0x01\n        /* \"contracts/Payement.sol\":3702:3720  isCompleted = true */\n      swap1\n      dup2\n      or\n      swap1\n      swap2\n      sstore\n        /* \"contracts/Payement.sol\":3771:3777  amount */\n      sload\n        /* \"contracts/Payement.sol\":3749:3782  passenger.call{value: amount}(\"\") */\n      mload(0x40)\n      0x00\n      swap2\n      sub(shl(0xa0, 0x01), 0x01)\n        /* \"contracts/Payement.sol\":3749:3758  passenger */\n      immutable(\"0x4393e7114eb674248a1480712950c28cb06e118e040859a2eafa3ca8a6dfbd69\")\n        /* \"contracts/Payement.sol\":3749:3763  passenger.call */\n      and\n      swap2\n      dup4\n        /* \"contracts/Payement.sol\":3749:3782  passenger.call{value: amount}(\"\") */\n      dup2\n      dup2\n      dup2\n        /* \"contracts/Payement.sol\":3771:3777  amount */\n      dup6\n        /* \"contracts/Payement.sol\":3749:3763  passenger.call */\n      dup8\n        /* \"contracts/Payement.sol\":3749:3782  passenger.call{value: amount}(\"\") */\n      gas\n      call\n      swap3\n      pop\n      pop\n      pop\n      returndatasize\n      dup1\n      0x00\n      dup2\n      eq\n      tag_108\n      jumpi\n      mload(0x40)\n      swap2\n      pop\n      and(add(returndatasize, 0x3f), not(0x1f))\n      dup3\n      add\n      0x40\n      mstore\n      returndatasize\n      dup3\n      mstore\n      returndatasize\n      0x00\n      0x20\n      dup5\n      add\n      returndatacopy\n      jump(tag_107)\n    tag_108:\n      0x60\n      swap2\n      pop\n    tag_107:\n      pop\n        /* \"contracts/Payement.sol\":3730:3782  (bool success, ) = passenger.call{value: amount}(\"\") */\n      pop\n      swap1\n      pop\n        /* \"contracts/Payement.sol\":3800:3807  success */\n      dup1\n        /* \"contracts/Payement.sol\":3792:3825  require(success, \"Refund failed\") */\n      tag_109\n      jumpi\n      mload(0x40)\n      shl(0xe5, 0x461bcd)\n      dup2\n      mstore\n        /* \"#utility.yul\":2821:2823   */\n      0x20\n        /* \"contracts/Payement.sol\":3792:3825  require(success, \"Refund failed\") */\n      0x04\n      dup3\n      add\n        /* \"#utility.yul\":2803:2824   */\n      mstore\n        /* \"#utility.yul\":2860:2862   */\n      0x0d\n        /* \"#utility.yul\":2840:2858   */\n      0x24\n      dup3\n      add\n        /* \"#utility.yul\":2833:2863   */\n      mstore\n      shl(0x9a, 0x1499599d5b990819985a5b1959)\n        /* \"#utility.yul\":2879:2897   */\n      0x44\n      dup3\n      add\n        /* \"#utility.yul\":2872:2915   */\n      mstore\n        /* \"#utility.yul\":2932:2950   */\n      0x64\n      add\n        /* \"contracts/Payement.sol\":3792:3825  require(success, \"Refund failed\") */\n      tag_83\n        /* \"#utility.yul\":2619:2956   */\n      jump\n        /* \"contracts/Payement.sol\":3792:3825  require(success, \"Refund failed\") */\n    tag_109:\n        /* \"contracts/Payement.sol\":3860:3866  amount */\n      sload(0x01)\n        /* \"contracts/Payement.sol\":3840:3884  Refunded(passenger, amount, block.timestamp) */\n      0x40\n      dup1\n      mload\n        /* \"#utility.yul\":3135:3160   */\n      swap2\n      dup3\n      mstore\n        /* \"contracts/Payement.sol\":3868:3883  block.timestamp */\n      timestamp\n        /* \"#utility.yul\":3191:3193   */\n      0x20\n        /* \"#utility.yul\":3176:3194   */\n      dup4\n      add\n        /* \"#utility.yul\":3169:3203   */\n      mstore\n      sub(shl(0xa0, 0x01), 0x01)\n        /* \"contracts/Payement.sol\":3849:3858  passenger */\n      immutable(\"0x4393e7114eb674248a1480712950c28cb06e118e040859a2eafa3ca8a6dfbd69\")\n        /* \"contracts/Payement.sol\":3840:3884  Refunded(passenger, amount, block.timestamp) */\n      and\n      swap2\n      0x2dc8e290002f06fc0085bbca9dfb8b415cf4d1178950c72ff9ee8f4d8878ee66\n      swap2\n        /* \"#utility.yul\":3108:3126   */\n      add\n        /* \"contracts/Payement.sol\":3840:3884  Refunded(passenger, amount, block.timestamp) */\n      mload(0x40)\n      dup1\n      swap2\n      sub\n      swap1\n      log2\n        /* \"contracts/Payement.sol\":3597:3891  {... */\n      pop\n        /* \"@openzeppelin/contracts/utils/ReentrancyGuard.sol\":2542:2562  _nonReentrantAfter() */\n      tag_94\n        /* \"@openzeppelin/contracts/utils/ReentrancyGuard.sol\":1857:1858  1 */\n      0x01\n        /* \"@openzeppelin/contracts/utils/ReentrancyGuard.sol\":3068:3075  _status */\n      0x00\n        /* \"@openzeppelin/contracts/utils/ReentrancyGuard.sol\":3068:3089  _status = NOT_ENTERED */\n      sstore\n        /* \"@openzeppelin/contracts/utils/ReentrancyGuard.sol\":2888:3096  function _nonReentrantAfter() private {... */\n      jump\n        /* \"contracts/Payement.sol\":3977:4774  function autoRelease() external onlyDriver notCompleted nonReentrant {... */\n    tag_33:\n        /* \"contracts/Payement.sol\":1343:1353  msg.sender */\n      caller\n      sub(shl(0xa0, 0x01), 0x01)\n        /* \"contracts/Payement.sol\":1357:1363  driver */\n      immutable(\"0x881472a5783e16aed4d4ff91eeebe17d420d379d078fc85dddb0a3a55a9abffe\")\n        /* \"contracts/Payement.sol\":1343:1363  msg.sender != driver */\n      and\n      eq\n        /* \"contracts/Payement.sol\":1339:1383  if (msg.sender != driver) revert NotDriver() */\n      tag_116\n      jumpi\n        /* \"contracts/Payement.sol\":1372:1383  NotDriver() */\n      mload(0x40)\n      shl(0xe1, 0x06073237)\n      dup2\n      mstore\n      0x04\n      add\n      mload(0x40)\n      dup1\n      swap2\n      sub\n      swap1\n      revert\n        /* \"contracts/Payement.sol\":1339:1383  if (msg.sender != driver) revert NotDriver() */\n    tag_116:\n        /* \"contracts/Payement.sol\":1445:1456  isCompleted */\n      and(0xff, sload(0x02))\n        /* \"contracts/Payement.sol\":1441:1483  if (isCompleted) revert AlreadyCompleted() */\n      iszero\n      tag_118\n      jumpi\n        /* \"contracts/Payement.sol\":1465:1483  AlreadyCompleted() */\n      mload(0x40)\n      shl(0xe0, 0x195332a5)\n      dup2\n      mstore\n      0x04\n      add\n      mload(0x40)\n      dup1\n      swap2\n      sub\n      swap1\n      revert\n        /* \"contracts/Payement.sol\":1441:1483  if (isCompleted) revert AlreadyCompleted() */\n    tag_118:\n        /* \"@openzeppelin/contracts/utils/ReentrancyGuard.sol\":2500:2521  _nonReentrantBefore() */\n      tag_120\n        /* \"@openzeppelin/contracts/utils/ReentrancyGuard.sol\":2500:2519  _nonReentrantBefore */\n      tag_66\n        /* \"@openzeppelin/contracts/utils/ReentrancyGuard.sol\":2500:2521  _nonReentrantBefore() */\n      jump\t// in\n    tag_120:\n        /* \"contracts/Payement.sol\":4097:4111  releaseTimeout */\n      sload(0x04)\n        /* \"contracts/Payement.sol\":4078:4094  depositTimestamp */\n      sload(0x03)\n        /* \"contracts/Payement.sol\":4078:4111  depositTimestamp + releaseTimeout */\n      tag_122\n      swap2\n      swap1\n      tag_69\n      jump\t// in\n    tag_122:\n        /* \"contracts/Payement.sol\":4060:4075  block.timestamp */\n      timestamp\n        /* \"contracts/Payement.sol\":4060:4111  block.timestamp < depositTimestamp + releaseTimeout */\n      lt\n        /* \"contracts/Payement.sol\":4056:4146  if (block.timestamp < depositTimestamp + releaseTimeout) revert ReleaseTimeoutNotReached() */\n      iszero\n      tag_123\n      jumpi\n        /* \"contracts/Payement.sol\":4120:4146  ReleaseTimeoutNotReached() */\n      mload(0x40)\n      shl(0xe0, 0x19dd465d)\n      dup2\n      mstore\n      0x04\n      add\n      mload(0x40)\n      dup1\n      swap2\n      sub\n      swap1\n      revert\n        /* \"contracts/Payement.sol\":4056:4146  if (block.timestamp < depositTimestamp + releaseTimeout) revert ReleaseTimeoutNotReached() */\n    tag_123:\n        /* \"contracts/Payement.sol\":4156:4167  isCompleted */\n      0x02\n        /* \"contracts/Payement.sol\":4156:4174  isCompleted = true */\n      dup1\n      sload\n      not(0xff)\n      and\n        /* \"contracts/Payement.sol\":4170:4174  true */\n      0x01\n        /* \"contracts/Payement.sol\":4156:4174  isCompleted = true */\n      swap1\n      dup2\n      or\n      swap1\n      swap2\n      sstore\n        /* \"contracts/Payement.sol\":4247:4253  amount */\n      sload\n        /* \"contracts/Payement.sol\":4156:4167  isCompleted */\n      0x00\n      swap1\n        /* \"contracts/Payement.sol\":4261:4264  100 */\n      0x64\n      swap1\n        /* \"contracts/Payement.sol\":4247:4257  amount * 5 */\n      tag_124\n      swap1\n        /* \"contracts/Payement.sol\":4256:4257  5 */\n      0x05\n        /* \"contracts/Payement.sol\":4247:4257  amount * 5 */\n      tag_72\n      jump\t// in\n    tag_124:\n        /* \"contracts/Payement.sol\":4246:4264  (amount * 5) / 100 */\n      tag_125\n      swap2\n      swap1\n      tag_74\n      jump\t// in\n    tag_125:\n        /* \"contracts/Payement.sol\":4232:4264  uint256 fee = (amount * 5) / 100 */\n      swap1\n      pop\n        /* \"contracts/Payement.sol\":4274:4294  uint256 driverAmount */\n      0x00\n        /* \"contracts/Payement.sol\":4306:4309  fee */\n      dup2\n        /* \"contracts/Payement.sol\":4297:4303  amount */\n      sload(0x01)\n        /* \"contracts/Payement.sol\":4297:4309  amount - fee */\n      tag_126\n      swap2\n      swap1\n      tag_76\n      jump\t// in\n    tag_126:\n        /* \"contracts/Payement.sol\":4274:4309  uint256 driverAmount = amount - fee */\n      swap1\n      pop\n        /* \"contracts/Payement.sol\":4355:4367  bool success */\n      0x00\n        /* \"contracts/Payement.sol\":4373:4379  driver */\n      immutable(\"0x881472a5783e16aed4d4ff91eeebe17d420d379d078fc85dddb0a3a55a9abffe\")\n      sub(shl(0xa0, 0x01), 0x01)\n        /* \"contracts/Payement.sol\":4373:4384  driver.call */\n      and\n        /* \"contracts/Payement.sol\":4392:4404  driverAmount */\n      dup3\n        /* \"contracts/Payement.sol\":4373:4409  driver.call{value: driverAmount}(\"\") */\n      mload(0x40)\n      0x00\n      mload(0x40)\n      dup1\n      dup4\n      sub\n      dup2\n      dup6\n      dup8\n      gas\n      call\n      swap3\n      pop\n      pop\n      pop\n      returndatasize\n      dup1\n      0x00\n      dup2\n      eq\n      tag_130\n      jumpi\n      mload(0x40)\n      swap2\n      pop\n      and(add(returndatasize, 0x3f), not(0x1f))\n      dup3\n      add\n      0x40\n      mstore\n      returndatasize\n      dup3\n      mstore\n      returndatasize\n      0x00\n      0x20\n      dup5\n      add\n      returndatacopy\n      jump(tag_129)\n    tag_130:\n      0x60\n      swap2\n      pop\n    tag_129:\n      pop\n        /* \"contracts/Payement.sol\":4354:4409  (bool success, ) = driver.call{value: driverAmount}(\"\") */\n      pop\n      swap1\n      pop\n        /* \"contracts/Payement.sol\":4427:4434  success */\n      dup1\n        /* \"contracts/Payement.sol\":4419:4458  require(success, \"Auto release failed\") */\n      tag_82\n      jumpi\n      mload(0x40)\n      shl(0xe5, 0x461bcd)\n      dup2\n      mstore\n        /* \"#utility.yul\":3416:3418   */\n      0x20\n        /* \"contracts/Payement.sol\":4419:4458  require(success, \"Auto release failed\") */\n      0x04\n      dup3\n      add\n        /* \"#utility.yul\":3398:3419   */\n      mstore\n        /* \"#utility.yul\":3455:3457   */\n      0x13\n        /* \"#utility.yul\":3435:3453   */\n      0x24\n      dup3\n      add\n        /* \"#utility.yul\":3428:3458   */\n      mstore\n      shl(0x6a, 0x105d5d1bc81c995b19585cd94819985a5b1959)\n        /* \"#utility.yul\":3474:3492   */\n      0x44\n      dup3\n      add\n        /* \"#utility.yul\":3467:3516   */\n      mstore\n        /* \"#utility.yul\":3533:3551   */\n      0x64\n      add\n        /* \"contracts/Payement.sol\":4419:4458  require(success, \"Auto release failed\") */\n      tag_83\n        /* \"#utility.yul\":3214:3557   */\n      jump\n        /* \"contracts/Payement.sol\":4861:5234  function autoRefund() external onlyPassenger notCompleted nonReentrant {... */\n    tag_44:\n        /* \"contracts/Payement.sol\":1237:1247  msg.sender */\n      caller\n      sub(shl(0xa0, 0x01), 0x01)\n        /* \"contracts/Payement.sol\":1251:1260  passenger */\n      immutable(\"0x4393e7114eb674248a1480712950c28cb06e118e040859a2eafa3ca8a6dfbd69\")\n        /* \"contracts/Payement.sol\":1237:1260  msg.sender != passenger */\n      and\n      eq\n        /* \"contracts/Payement.sol\":1233:1283  if (msg.sender != passenger) revert NotPassenger() */\n      tag_143\n      jumpi\n        /* \"contracts/Payement.sol\":1269:1283  NotPassenger() */\n      mload(0x40)\n      shl(0xe0, 0x1862871b)\n      dup2\n      mstore\n      0x04\n      add\n      mload(0x40)\n      dup1\n      swap2\n      sub\n      swap1\n      revert\n        /* \"contracts/Payement.sol\":1233:1283  if (msg.sender != passenger) revert NotPassenger() */\n    tag_143:\n        /* \"contracts/Payement.sol\":1445:1456  isCompleted */\n      and(0xff, sload(0x02))\n        /* \"contracts/Payement.sol\":1441:1483  if (isCompleted) revert AlreadyCompleted() */\n      iszero\n      tag_145\n      jumpi\n        /* \"contracts/Payement.sol\":1465:1483  AlreadyCompleted() */\n      mload(0x40)\n      shl(0xe0, 0x195332a5)\n      dup2\n      mstore\n      0x04\n      add\n      mload(0x40)\n      dup1\n      swap2\n      sub\n      swap1\n      revert\n        /* \"contracts/Payement.sol\":1441:1483  if (isCompleted) revert AlreadyCompleted() */\n    tag_145:\n        /* \"@openzeppelin/contracts/utils/ReentrancyGuard.sol\":2500:2521  _nonReentrantBefore() */\n      tag_147\n        /* \"@openzeppelin/contracts/utils/ReentrancyGuard.sol\":2500:2519  _nonReentrantBefore */\n      tag_66\n        /* \"@openzeppelin/contracts/utils/ReentrancyGuard.sol\":2500:2521  _nonReentrantBefore() */\n      jump\t// in\n    tag_147:\n        /* \"contracts/Payement.sol\":4983:4996  refundTimeout */\n      sload(0x05)\n        /* \"contracts/Payement.sol\":4964:4980  depositTimestamp */\n      sload(0x03)\n        /* \"contracts/Payement.sol\":4964:4996  depositTimestamp + refundTimeout */\n      tag_149\n      swap2\n      swap1\n      tag_69\n      jump\t// in\n    tag_149:\n        /* \"contracts/Payement.sol\":4946:4961  block.timestamp */\n      timestamp\n        /* \"contracts/Payement.sol\":4946:4996  block.timestamp < depositTimestamp + refundTimeout */\n      lt\n        /* \"contracts/Payement.sol\":4942:5030  if (block.timestamp < depositTimestamp + refundTimeout) revert RefundTimeoutNotReached() */\n      iszero\n      tag_150\n      jumpi\n        /* \"contracts/Payement.sol\":5005:5030  RefundTimeoutNotReached() */\n      mload(0x40)\n      shl(0xe0, 0x7c7b0585)\n      dup2\n      mstore\n      0x04\n      add\n      mload(0x40)\n      dup1\n      swap2\n      sub\n      swap1\n      revert\n        /* \"contracts/Payement.sol\":4942:5030  if (block.timestamp < depositTimestamp + refundTimeout) revert RefundTimeoutNotReached() */\n    tag_150:\n        /* \"contracts/Payement.sol\":5040:5051  isCompleted */\n      0x02\n        /* \"contracts/Payement.sol\":5040:5058  isCompleted = true */\n      dup1\n      sload\n      not(0xff)\n      and\n        /* \"contracts/Payement.sol\":5054:5058  true */\n      0x01\n        /* \"contracts/Payement.sol\":5040:5058  isCompleted = true */\n      swap1\n      dup2\n      or\n      swap1\n      swap2\n      sstore\n        /* \"contracts/Payement.sol\":5109:5115  amount */\n      sload\n        /* \"contracts/Payement.sol\":5087:5120  passenger.call{value: amount}(\"\") */\n      mload(0x40)\n      0x00\n      swap2\n      sub(shl(0xa0, 0x01), 0x01)\n        /* \"contracts/Payement.sol\":5087:5096  passenger */\n      immutable(\"0x4393e7114eb674248a1480712950c28cb06e118e040859a2eafa3ca8a6dfbd69\")\n        /* \"contracts/Payement.sol\":5087:5101  passenger.call */\n      and\n      swap2\n      dup4\n        /* \"contracts/Payement.sol\":5087:5120  passenger.call{value: amount}(\"\") */\n      dup2\n      dup2\n      dup2\n        /* \"contracts/Payement.sol\":5109:5115  amount */\n      dup6\n        /* \"contracts/Payement.sol\":5087:5101  passenger.call */\n      dup8\n        /* \"contracts/Payement.sol\":5087:5120  passenger.call{value: amount}(\"\") */\n      gas\n      call\n      swap3\n      pop\n      pop\n      pop\n      returndatasize\n      dup1\n      0x00\n      dup2\n      eq\n      tag_154\n      jumpi\n      mload(0x40)\n      swap2\n      pop\n      and(add(returndatasize, 0x3f), not(0x1f))\n      dup3\n      add\n      0x40\n      mstore\n      returndatasize\n      dup3\n      mstore\n      returndatasize\n      0x00\n      0x20\n      dup5\n      add\n      returndatacopy\n      jump(tag_153)\n    tag_154:\n      0x60\n      swap2\n      pop\n    tag_153:\n      pop\n        /* \"contracts/Payement.sol\":5068:5120  (bool success, ) = passenger.call{value: amount}(\"\") */\n      pop\n      swap1\n      pop\n        /* \"contracts/Payement.sol\":5138:5145  success */\n      dup1\n        /* \"contracts/Payement.sol\":5130:5168  require(success, \"Auto refund failed\") */\n      tag_109\n      jumpi\n      mload(0x40)\n      shl(0xe5, 0x461bcd)\n      dup2\n      mstore\n        /* \"#utility.yul\":3764:3766   */\n      0x20\n        /* \"contracts/Payement.sol\":5130:5168  require(success, \"Auto refund failed\") */\n      0x04\n      dup3\n      add\n        /* \"#utility.yul\":3746:3767   */\n      mstore\n        /* \"#utility.yul\":3803:3805   */\n      0x12\n        /* \"#utility.yul\":3783:3801   */\n      0x24\n      dup3\n      add\n        /* \"#utility.yul\":3776:3806   */\n      mstore\n      shl(0x72, 0x105d5d1bc81c99599d5b990819985a5b1959)\n        /* \"#utility.yul\":3822:3840   */\n      0x44\n      dup3\n      add\n        /* \"#utility.yul\":3815:3863   */\n      mstore\n        /* \"#utility.yul\":3880:3898   */\n      0x64\n      add\n        /* \"contracts/Payement.sol\":5130:5168  require(success, \"Auto refund failed\") */\n      tag_83\n        /* \"#utility.yul\":3562:3904   */\n      jump\n        /* \"contracts/Payement.sol\":2282:2552  function deposit() external payable onlyPassenger notCompleted nonReentrant {... */\n    tag_50:\n        /* \"contracts/Payement.sol\":1237:1247  msg.sender */\n      caller\n      sub(shl(0xa0, 0x01), 0x01)\n        /* \"contracts/Payement.sol\":1251:1260  passenger */\n      immutable(\"0x4393e7114eb674248a1480712950c28cb06e118e040859a2eafa3ca8a6dfbd69\")\n        /* \"contracts/Payement.sol\":1237:1260  msg.sender != passenger */\n      and\n      eq\n        /* \"contracts/Payement.sol\":1233:1283  if (msg.sender != passenger) revert NotPassenger() */\n      tag_161\n      jumpi\n        /* \"contracts/Payement.sol\":1269:1283  NotPassenger() */\n      mload(0x40)\n      shl(0xe0, 0x1862871b)\n      dup2\n      mstore\n      0x04\n      add\n      mload(0x40)\n      dup1\n      swap2\n      sub\n      swap1\n      revert\n        /* \"contracts/Payement.sol\":1233:1283  if (msg.sender != passenger) revert NotPassenger() */\n    tag_161:\n        /* \"contracts/Payement.sol\":1445:1456  isCompleted */\n      and(0xff, sload(0x02))\n        /* \"contracts/Payement.sol\":1441:1483  if (isCompleted) revert AlreadyCompleted() */\n      iszero\n      tag_163\n      jumpi\n        /* \"contracts/Payement.sol\":1465:1483  AlreadyCompleted() */\n      mload(0x40)\n      shl(0xe0, 0x195332a5)\n      dup2\n      mstore\n      0x04\n      add\n      mload(0x40)\n      dup1\n      swap2\n      sub\n      swap1\n      revert\n        /* \"contracts/Payement.sol\":1441:1483  if (isCompleted) revert AlreadyCompleted() */\n    tag_163:\n        /* \"@openzeppelin/contracts/utils/ReentrancyGuard.sol\":2500:2521  _nonReentrantBefore() */\n      tag_165\n        /* \"@openzeppelin/contracts/utils/ReentrancyGuard.sol\":2500:2519  _nonReentrantBefore */\n      tag_66\n        /* \"@openzeppelin/contracts/utils/ReentrancyGuard.sol\":2500:2521  _nonReentrantBefore() */\n      jump\t// in\n    tag_165:\n        /* \"contracts/Payement.sol\":2372:2381  msg.value */\n      callvalue\n        /* \"contracts/Payement.sol\":2385:2386  0 */\n      0x00\n        /* \"contracts/Payement.sol\":2372:2386  msg.value == 0 */\n      sub\n        /* \"contracts/Payement.sol\":2368:2408  if (msg.value == 0) revert ZeroDeposit() */\n      tag_167\n      jumpi\n        /* \"contracts/Payement.sol\":2395:2408  ZeroDeposit() */\n      mload(0x40)\n      shl(0xe0, 0x56316e87)\n      dup2\n      mstore\n      0x04\n      add\n      mload(0x40)\n      dup1\n      swap2\n      sub\n      swap1\n      revert\n        /* \"contracts/Payement.sol\":2368:2408  if (msg.value == 0) revert ZeroDeposit() */\n    tag_167:\n        /* \"contracts/Payement.sol\":2428:2437  msg.value */\n      callvalue\n        /* \"contracts/Payement.sol\":2418:2424  amount */\n      0x01\n      0x00\n        /* \"contracts/Payement.sol\":2418:2437  amount += msg.value */\n      dup3\n      dup3\n      sload\n      tag_168\n      swap2\n      swap1\n      tag_69\n      jump\t// in\n    tag_168:\n      swap1\n      swap2\n      sstore\n      pop\n      pop\n        /* \"contracts/Payement.sol\":2466:2481  block.timestamp */\n      timestamp\n        /* \"contracts/Payement.sol\":2447:2463  depositTimestamp */\n      0x03\n        /* \"contracts/Payement.sol\":2447:2481  depositTimestamp = block.timestamp */\n      dup2\n      swap1\n      sstore\n        /* \"contracts/Payement.sol\":2496:2545  Deposited(msg.sender, msg.value, block.timestamp) */\n      mload(0x40)\n        /* \"contracts/Payement.sol\":2506:2516  msg.sender */\n      caller\n      swap2\n        /* \"contracts/Payement.sol\":2496:2545  Deposited(msg.sender, msg.value, block.timestamp) */\n      0x73a19dd210f1a7f902193214c0ee91dd35ee5b4d920cba8d519eca65a7b488ca\n      swap2\n      tag_169\n      swap2\n        /* \"contracts/Payement.sol\":2518:2527  msg.value */\n      callvalue\n        /* \"#utility.yul\":3135:3160   */\n      dup3\n      mstore\n        /* \"#utility.yul\":3191:3193   */\n      0x20\n        /* \"#utility.yul\":3176:3194   */\n      dup3\n      add\n        /* \"#utility.yul\":3169:3203   */\n      mstore\n        /* \"#utility.yul\":3123:3125   */\n      0x40\n        /* \"#utility.yul\":3108:3126   */\n      add\n      swap1\n        /* \"#utility.yul\":2961:3209   */\n      jump\n        /* \"contracts/Payement.sol\":2496:2545  Deposited(msg.sender, msg.value, block.timestamp) */\n    tag_169:\n      mload(0x40)\n      dup1\n      swap2\n      sub\n      swap1\n      log2\n        /* \"@openzeppelin/contracts/utils/ReentrancyGuard.sol\":2542:2562  _nonReentrantAfter() */\n      tag_94\n        /* \"@openzeppelin/contracts/utils/ReentrancyGuard.sol\":1857:1858  1 */\n      0x01\n        /* \"@openzeppelin/contracts/utils/ReentrancyGuard.sol\":3068:3075  _status */\n      0x00\n        /* \"@openzeppelin/contracts/utils/ReentrancyGuard.sol\":3068:3089  _status = NOT_ENTERED */\n      sstore\n        /* \"@openzeppelin/contracts/utils/ReentrancyGuard.sol\":2888:3096  function _nonReentrantAfter() private {... */\n      jump\n        /* \"@openzeppelin/contracts/utils/ReentrancyGuard.sol\":2575:2882  function _nonReentrantBefore() private {... */\n    tag_66:\n        /* \"@openzeppelin/contracts/utils/ReentrancyGuard.sol\":1899:1900  2 */\n      0x02\n        /* \"@openzeppelin/contracts/utils/ReentrancyGuard.sol\":2702:2709  _status */\n      sload(0x00)\n        /* \"@openzeppelin/contracts/utils/ReentrancyGuard.sol\":2702:2720  _status == ENTERED */\n      sub\n        /* \"@openzeppelin/contracts/utils/ReentrancyGuard.sol\":2698:2784  if (_status == ENTERED) {... */\n      tag_172\n      jumpi\n        /* \"@openzeppelin/contracts/utils/ReentrancyGuard.sol\":2743:2773  ReentrancyGuardReentrantCall() */\n      mload(0x40)\n      shl(0xe0, 0x3ee5aeb5)\n      dup2\n      mstore\n      0x04\n      add\n      mload(0x40)\n      dup1\n      swap2\n      sub\n      swap1\n      revert\n        /* \"@openzeppelin/contracts/utils/ReentrancyGuard.sol\":2698:2784  if (_status == ENTERED) {... */\n    tag_172:\n        /* \"@openzeppelin/contracts/utils/ReentrancyGuard.sol\":1899:1900  2 */\n      0x02\n        /* \"@openzeppelin/contracts/utils/ReentrancyGuard.sol\":2858:2865  _status */\n      0x00\n        /* \"@openzeppelin/contracts/utils/ReentrancyGuard.sol\":2858:2875  _status = ENTERED */\n      sstore\n        /* \"@openzeppelin/contracts/utils/ReentrancyGuard.sol\":2575:2882  function _nonReentrantBefore() private {... */\n      jump\t// out\n        /* \"#utility.yul\":596:723   */\n    tag_174:\n        /* \"#utility.yul\":657:667   */\n      0x4e487b71\n        /* \"#utility.yul\":652:655   */\n      0xe0\n        /* \"#utility.yul\":648:668   */\n      shl\n        /* \"#utility.yul\":645:646   */\n      0x00\n        /* \"#utility.yul\":638:669   */\n      mstore\n        /* \"#utility.yul\":688:692   */\n      0x11\n        /* \"#utility.yul\":685:686   */\n      0x04\n        /* \"#utility.yul\":678:693   */\n      mstore\n        /* \"#utility.yul\":712:716   */\n      0x24\n        /* \"#utility.yul\":709:710   */\n      0x00\n        /* \"#utility.yul\":702:717   */\n      revert\n        /* \"#utility.yul\":728:853   */\n    tag_69:\n        /* \"#utility.yul\":793:802   */\n      dup1\n      dup3\n      add\n        /* \"#utility.yul\":814:824   */\n      dup1\n      dup3\n      gt\n        /* \"#utility.yul\":811:847   */\n      iszero\n      tag_182\n      jumpi\n        /* \"#utility.yul\":827:845   */\n      tag_182\n      tag_174\n      jump\t// in\n    tag_182:\n        /* \"#utility.yul\":728:853   */\n      swap3\n      swap2\n      pop\n      pop\n      jump\t// out\n        /* \"#utility.yul\":858:1026   */\n    tag_72:\n        /* \"#utility.yul\":931:940   */\n      dup1\n      dup3\n      mul\n        /* \"#utility.yul\":962:971   */\n      dup2\n      iszero\n        /* \"#utility.yul\":979:994   */\n      dup3\n      dup3\n      div\n        /* \"#utility.yul\":973:995   */\n      dup5\n      eq\n        /* \"#utility.yul\":959:996   */\n      or\n        /* \"#utility.yul\":949:1020   */\n      tag_182\n      jumpi\n        /* \"#utility.yul\":1000:1018   */\n      tag_182\n      tag_174\n      jump\t// in\n        /* \"#utility.yul\":1031:1248   */\n    tag_74:\n        /* \"#utility.yul\":1071:1072   */\n      0x00\n        /* \"#utility.yul\":1097:1098   */\n      dup3\n        /* \"#utility.yul\":1087:1219   */\n      tag_187\n      jumpi\n        /* \"#utility.yul\":1141:1151   */\n      0x4e487b71\n        /* \"#utility.yul\":1136:1139   */\n      0xe0\n        /* \"#utility.yul\":1132:1152   */\n      shl\n        /* \"#utility.yul\":1129:1130   */\n      0x00\n        /* \"#utility.yul\":1122:1153   */\n      mstore\n        /* \"#utility.yul\":1176:1180   */\n      0x12\n        /* \"#utility.yul\":1173:1174   */\n      0x04\n        /* \"#utility.yul\":1166:1181   */\n      mstore\n        /* \"#utility.yul\":1204:1208   */\n      0x24\n        /* \"#utility.yul\":1201:1202   */\n      0x00\n        /* \"#utility.yul\":1194:1209   */\n      revert\n        /* \"#utility.yul\":1087:1219   */\n    tag_187:\n      pop\n        /* \"#utility.yul\":1233:1242   */\n      div\n      swap1\n        /* \"#utility.yul\":1031:1248   */\n      jump\t// out\n        /* \"#utility.yul\":1253:1381   */\n    tag_76:\n        /* \"#utility.yul\":1320:1329   */\n      dup2\n      dup2\n      sub\n        /* \"#utility.yul\":1341:1352   */\n      dup2\n      dup2\n      gt\n        /* \"#utility.yul\":1338:1375   */\n      iszero\n      tag_182\n      jumpi\n        /* \"#utility.yul\":1355:1373   */\n      tag_182\n      tag_174\n      jump\t// in\n\n    auxdata: 0xa2646970667358221220490b543192843257bb542c93081d4c6ecca2db8464778e7a5eb3a16c2059f9d564736f6c63430008140033\n}\n","bytecode":{"linkReferences":{},"object":"60c060405234801561001057600080fd5b50604051610d5f380380610d5f83398101604081905261002f916100fc565b60016000556001600160a01b03831661008f5760405162461bcd60e51b815260206004820152601660248201527f496e76616c69642064726976657220616464726573730000000000000000000060448201526064015b60405180910390fd5b60008211801561009f5750600081115b6100de5760405162461bcd60e51b815260206004820152601060248201526f496e76616c69642074696d656f75747360801b6044820152606401610086565b336080526001600160a01b039290921660a05260045560055561013f565b60008060006060848603121561011157600080fd5b83516001600160a01b038116811461012857600080fd5b602085015160409095015190969495509392505050565b60805160a051610bae6101b160003960008181610113015281816103070152818161047401528181610503015281816106d801526107b60152600081816101b50152818161022a015281816105bd01528181610676015281816108760152818161093101526109e00152610bae6000f3fe6080604052600436106100a75760003560e01c8063aa8c217c11610064578063aa8c217c14610178578063b723ae751461018e578063c11ae86f146101a3578063d0e30db0146101d7578063dba26783146101df578063fa391c64146101f557600080fd5b80631e31a6dd146100ac5780633a10ec1a146100c3578063590e1ae3146100ec5780636ecc5d6214610101578063a36693b11461014d578063a585412314610162575b600080fd5b3480156100b857600080fd5b506100c161021f565b005b3480156100cf57600080fd5b506100d960045481565b6040519081526020015b60405180910390f35b3480156100f857600080fd5b506100c16104f8565b34801561010d57600080fd5b506101357f000000000000000000000000000000000000000000000000000000000000000081565b6040516001600160a01b0390911681526020016100e3565b34801561015957600080fd5b506100c16106cd565b34801561016e57600080fd5b506100d960035481565b34801561018457600080fd5b506100d960015481565b34801561019a57600080fd5b506100c161086b565b3480156101af57600080fd5b506101357f000000000000000000000000000000000000000000000000000000000000000081565b6100c16109d5565b3480156101eb57600080fd5b506100d960055481565b34801561020157600080fd5b5060025461020f9060ff1681565b60405190151581526020016100e3565b336001600160a01b037f0000000000000000000000000000000000000000000000000000000000000000161461026857604051631862871b60e01b815260040160405180910390fd5b60025460ff161561028c5760405163195332a560e01b815260040160405180910390fd5b610294610ad3565b6004546003546102a49190610b13565b42106102c357604051632462667b60e21b815260040160405180910390fd5b6002805460ff19166001908117909155546000906064906102e5906005610b2c565b6102ef9190610b43565b90506000816001546103019190610b65565b905060007f00000000000000000000000000000000000000000000000000000000000000006001600160a01b03168260405160006040518083038185875af1925050503d8060008114610370576040519150601f19603f3d011682016040523d82523d6000602084013e610375565b606091505b50509050806103c45760405162461bcd60e51b8152602060048201526016602482015275111c9a5d995c881d1c985b9cd9995c8819985a5b195960521b60448201526064015b60405180910390fd5b60405173cb7f49a123087ab9b6594a3b3169c2cc6d15797a9081908590600081818185875af1925050503d806000811461041a576040519150601f19603f3d011682016040523d82523d6000602084013e61041f565b606091505b505080925050816104685760405162461bcd60e51b8152602060048201526013602482015272119959481d1c985b9cd9995c8819985a5b1959606a1b60448201526064016103bb565b806001600160a01b03167f00000000000000000000000000000000000000000000000000000000000000006001600160a01b03167f230c988e3934b87df8f6cfbdea23b953743e4b315eb6ba859a72703e6f356a768587426040516104e0939291909283526020830191909152604082015260600190565b60405180910390a3505050506104f66001600055565b565b336001600160a01b037f0000000000000000000000000000000000000000000000000000000000000000161461054157604051630607323760e11b815260040160405180910390fd5b60025460ff16156105655760405163195332a560e01b815260040160405180910390fd5b61056d610ad3565b60055460035461057d9190610b13565b421061059c57604051636c2eb43760e11b815260040160405180910390fd5b6002805460ff19166001908117909155546040516000916001600160a01b037f000000000000000000000000000000000000000000000000000000000000000016918381818185875af1925050503d8060008114610616576040519150601f19603f3d011682016040523d82523d6000602084013e61061b565b606091505b505090508061065c5760405162461bcd60e51b815260206004820152600d60248201526c1499599d5b990819985a5b1959609a1b60448201526064016103bb565b600154604080519182524260208301526001600160a01b037f000000000000000000000000000000000000000000000000000000000000000016917f2dc8e290002f06fc0085bbca9dfb8b415cf4d1178950c72ff9ee8f4d8878ee66910160405180910390a2506104f66001600055565b336001600160a01b037f0000000000000000000000000000000000000000000000000000000000000000161461071657604051630607323760e11b815260040160405180910390fd5b60025460ff161561073a5760405163195332a560e01b815260040160405180910390fd5b610742610ad3565b6004546003546107529190610b13565b421015610772576040516319dd465d60e01b815260040160405180910390fd5b6002805460ff1916600190811790915554600090606490610794906005610b2c565b61079e9190610b43565b90506000816001546107b09190610b65565b905060007f00000000000000000000000000000000000000000000000000000000000000006001600160a01b03168260405160006040518083038185875af1925050503d806000811461081f576040519150601f19603f3d011682016040523d82523d6000602084013e610824565b606091505b50509050806103c45760405162461bcd60e51b8152602060048201526013602482015272105d5d1bc81c995b19585cd94819985a5b1959606a1b60448201526064016103bb565b336001600160a01b037f000000000000000000000000000000000000000000000000000000000000000016146108b457604051631862871b60e01b815260040160405180910390fd5b60025460ff16156108d85760405163195332a560e01b815260040160405180910390fd5b6108e0610ad3565b6005546003546108f09190610b13565b42101561091057604051637c7b058560e01b815260040160405180910390fd5b6002805460ff19166001908117909155546040516000916001600160a01b037f000000000000000000000000000000000000000000000000000000000000000016918381818185875af1925050503d806000811461098a576040519150601f19603f3d011682016040523d82523d6000602084013e61098f565b606091505b505090508061065c5760405162461bcd60e51b8152602060048201526012602482015271105d5d1bc81c99599d5b990819985a5b195960721b60448201526064016103bb565b336001600160a01b037f00000000000000000000000000000000000000000000000000000000000000001614610a1e57604051631862871b60e01b815260040160405180910390fd5b60025460ff1615610a425760405163195332a560e01b815260040160405180910390fd5b610a4a610ad3565b34600003610a6b576040516356316e8760e01b815260040160405180910390fd5b3460016000828254610a7d9190610b13565b909155505042600381905560405133917f73a19dd210f1a7f902193214c0ee91dd35ee5b4d920cba8d519eca65a7b488ca91610ac191348252602082015260400190565b60405180910390a26104f66001600055565b600260005403610af657604051633ee5aeb560e01b815260040160405180910390fd5b6002600055565b634e487b7160e01b600052601160045260246000fd5b80820180821115610b2657610b26610afd565b92915050565b8082028115828204841417610b2657610b26610afd565b600082610b6057634e487b7160e01b600052601260045260246000fd5b500490565b81810381811115610b2657610b26610afd56fea2646970667358221220490b543192843257bb542c93081d4c6ecca2db8464778e7a5eb3a16c2059f9d564736f6c63430008140033","opcodes":"PUSH1 0xC0 PUSH1 0x40 MSTORE CALLVALUE DUP1 ISZERO PUSH2 0x10 JUMPI PUSH1 0x0 DUP1 REVERT JUMPDEST POP PUSH1 0x40 MLOAD PUSH2 0xD5F CODESIZE SUB DUP1 PUSH2 0xD5F DUP4 CODECOPY DUP2 ADD PUSH1 0x40 DUP2 SWAP1 MSTORE PUSH2 0x2F SWAP2 PUSH2 0xFC JUMP JUMPDEST PUSH1 0x1 PUSH1 0x0 SSTORE PUSH1 0x1 PUSH1 0x1 PUSH1 0xA0 SHL SUB DUP4 AND PUSH2 0x8F JUMPI PUSH1 0x40 MLOAD PUSH3 0x461BCD PUSH1 0xE5 SHL DUP2 MSTORE PUSH1 0x20 PUSH1 0x4 DUP3 ADD MSTORE PUSH1 0x16 PUSH1 0x24 DUP3 ADD MSTORE PUSH32 0x496E76616C696420647269766572206164647265737300000000000000000000 PUSH1 0x44 DUP3 ADD MSTORE PUSH1 0x64 ADD JUMPDEST PUSH1 0x40 MLOAD DUP1 SWAP2 SUB SWAP1 REVERT JUMPDEST PUSH1 0x0 DUP3 GT DUP1 ISZERO PUSH2 0x9F JUMPI POP PUSH1 0x0 DUP2 GT JUMPDEST PUSH2 0xDE JUMPI PUSH1 0x40 MLOAD PUSH3 0x461BCD PUSH1 0xE5 SHL DUP2 MSTORE PUSH1 0x20 PUSH1 0x4 DUP3 ADD MSTORE PUSH1 0x10 PUSH1 0x24 DUP3 ADD MSTORE PUSH16 0x496E76616C69642074696D656F757473 PUSH1 0x80 SHL PUSH1 0x44 DUP3 ADD MSTORE PUSH1 0x64 ADD PUSH2 0x86 JUMP JUMPDEST CALLER PUSH1 0x80 MSTORE PUSH1 0x1 PUSH1 0x1 PUSH1 0xA0 SHL SUB SWAP3 SWAP1 SWAP3 AND PUSH1 0xA0 MSTORE PUSH1 0x4 SSTORE PUSH1 0x5 SSTORE PUSH2 0x13F JUMP JUMPDEST PUSH1 0x0 DUP1 PUSH1 0x0 PUSH1 0x60 DUP5 DUP7 SUB SLT ISZERO PUSH2 0x111 JUMPI PUSH1 0x0 DUP1 REVERT JUMPDEST DUP4 MLOAD PUSH1 0x1 PUSH1 0x1 PUSH1 0xA0 SHL SUB DUP2 AND DUP2 EQ PUSH2 0x128 JUMPI PUSH1 0x0 DUP1 REVERT JUMPDEST PUSH1 0x20 DUP6 ADD MLOAD PUSH1 0x40 SWAP1 SWAP6 ADD MLOAD SWAP1 SWAP7 SWAP5 SWAP6 POP SWAP4 SWAP3 POP POP POP JUMP JUMPDEST PUSH1 0x80 MLOAD PUSH1 0xA0 MLOAD PUSH2 0xBAE PUSH2 0x1B1 PUSH1 0x0 CODECOPY PUSH1 0x0 DUP2 DUP2 PUSH2 0x113 ADD MSTORE DUP2 DUP2 PUSH2 0x307 ADD MSTORE DUP2 DUP2 PUSH2 0x474 ADD MSTORE DUP2 DUP2 PUSH2 0x503 ADD MSTORE DUP2 DUP2 PUSH2 0x6D8 ADD MSTORE PUSH2 0x7B6 ADD MSTORE PUSH1 0x0 DUP2 DUP2 PUSH2 0x1B5 ADD MSTORE DUP2 DUP2 PUSH2 0x22A ADD MSTORE DUP2 DUP2 PUSH2 0x5BD ADD MSTORE DUP2 DUP2 PUSH2 0x676 ADD MSTORE DUP2 DUP2 PUSH2 0x876 ADD MSTORE DUP2 DUP2 PUSH2 0x931 ADD MSTORE PUSH2 0x9E0 ADD MSTORE PUSH2 0xBAE PUSH1 0x0 RETURN INVALID PUSH1 0x80 PUSH1 0x40 MSTORE PUSH1 0x4 CALLDATASIZE LT PUSH2 0xA7 JUMPI PUSH1 0x0 CALLDATALOAD PUSH1 0xE0 SHR DUP1 PUSH4 0xAA8C217C GT PUSH2 0x64 JUMPI DUP1 PUSH4 0xAA8C217C EQ PUSH2 0x178 JUMPI DUP1 PUSH4 0xB723AE75 EQ PUSH2 0x18E JUMPI DUP1 PUSH4 0xC11AE86F EQ PUSH2 0x1A3 JUMPI DUP1 PUSH4 0xD0E30DB0 EQ PUSH2 0x1D7 JUMPI DUP1 PUSH4 0xDBA26783 EQ PUSH2 0x1DF JUMPI DUP1 PUSH4 0xFA391C64 EQ PUSH2 0x1F5 JUMPI PUSH1 0x0 DUP1 REVERT JUMPDEST DUP1 PUSH4 0x1E31A6DD EQ PUSH2 0xAC JUMPI DUP1 PUSH4 0x3A10EC1A EQ PUSH2 0xC3 JUMPI DUP1 PUSH4 0x590E1AE3 EQ PUSH2 0xEC JUMPI DUP1 PUSH4 0x6ECC5D62 EQ PUSH2 0x101 JUMPI DUP1 PUSH4 0xA36693B1 EQ PUSH2 0x14D JUMPI DUP1 PUSH4 0xA5854123 EQ PUSH2 0x162 JUMPI JUMPDEST PUSH1 0x0 DUP1 REVERT JUMPDEST CALLVALUE DUP1 ISZERO PUSH2 0xB8 JUMPI PUSH1 0x0 DUP1 REVERT JUMPDEST POP PUSH2 0xC1 PUSH2 0x21F JUMP JUMPDEST STOP JUMPDEST CALLVALUE DUP1 ISZERO PUSH2 0xCF JUMPI PUSH1 0x0 DUP1 REVERT JUMPDEST POP PUSH2 0xD9 PUSH1 0x4 SLOAD DUP2 JUMP JUMPDEST PUSH1 0x40 MLOAD SWAP1 DUP2 MSTORE PUSH1 0x20 ADD JUMPDEST PUSH1 0x40 MLOAD DUP1 SWAP2 SUB SWAP1 RETURN JUMPDEST CALLVALUE DUP1 ISZERO PUSH2 0xF8 JUMPI PUSH1 0x0 DUP1 REVERT JUMPDEST POP PUSH2 0xC1 PUSH2 0x4F8 JUMP JUMPDEST CALLVALUE DUP1 ISZERO PUSH2 0x10D JUMPI PUSH1 0x0 DUP1 REVERT JUMPDEST POP PUSH2 0x135 PUSH32 0x0 DUP2 JUMP JUMPDEST PUSH1 0x40 MLOAD PUSH1 0x1 PUSH1 0x1 PUSH1 0xA0 SHL SUB SWAP1 SWAP2 AND DUP2 MSTORE PUSH1 0x20 ADD PUSH2 0xE3 JUMP JUMPDEST CALLVALUE DUP1 ISZERO PUSH2 0x159 JUMPI PUSH1 0x0 DUP1 REVERT JUMPDEST POP PUSH2 0xC1 PUSH2 0x6CD JUMP JUMPDEST CALLVALUE DUP1 ISZERO PUSH2 0x16E JUMPI PUSH1 0x0 DUP1 REVERT JUMPDEST POP PUSH2 0xD9 PUSH1 0x3 SLOAD DUP2 JUMP JUMPDEST CALLVALUE DUP1 ISZERO PUSH2 0x184 JUMPI PUSH1 0x0 DUP1 REVERT JUMPDEST POP PUSH2 0xD9 PUSH1 0x1 SLOAD DUP2 JUMP JUMPDEST CALLVALUE DUP1 ISZERO PUSH2 0x19A JUMPI PUSH1 0x0 DUP1 REVERT JUMPDEST POP PUSH2 0xC1 PUSH2 0x86B JUMP JUMPDEST CALLVALUE DUP1 ISZERO PUSH2 0x1AF JUMPI PUSH1 0x0 DUP1 REVERT JUMPDEST POP PUSH2 0x135 PUSH32 0x0 DUP2 JUMP JUMPDEST PUSH2 0xC1 PUSH2 0x9D5 JUMP JUMPDEST CALLVALUE DUP1 ISZERO PUSH2 0x1EB JUMPI PUSH1 0x0 DUP1 REVERT JUMPDEST POP PUSH2 0xD9 PUSH1 0x5 SLOAD DUP2 JUMP JUMPDEST CALLVALUE DUP1 ISZERO PUSH2 0x201 JUMPI PUSH1 0x0 DUP1 REVERT JUMPDEST POP PUSH1 0x2 SLOAD PUSH2 0x20F SWAP1 PUSH1 0xFF AND DUP2 JUMP JUMPDEST PUSH1 0x40 MLOAD SWAP1 ISZERO ISZERO DUP2 MSTORE PUSH1 0x20 ADD PUSH2 0xE3 JUMP JUMPDEST CALLER PUSH1 0x1 PUSH1 0x1 PUSH1 0xA0 SHL SUB PUSH32 0x0 AND EQ PUSH2 0x268 JUMPI PUSH1 0x40 MLOAD PUSH4 0x1862871B PUSH1 0xE0 SHL DUP2 MSTORE PUSH1 0x4 ADD PUSH1 0x40 MLOAD DUP1 SWAP2 SUB SWAP1 REVERT JUMPDEST PUSH1 0x2 SLOAD PUSH1 0xFF AND ISZERO PUSH2 0x28C JUMPI PUSH1 0x40 MLOAD PUSH4 0x195332A5 PUSH1 0xE0 SHL DUP2 MSTORE PUSH1 0x4 ADD PUSH1 0x40 MLOAD DUP1 SWAP2 SUB SWAP1 REVERT JUMPDEST PUSH2 0x294 PUSH2 0xAD3 JUMP JUMPDEST PUSH1 0x4 SLOAD PUSH1 0x3 SLOAD PUSH2 0x2A4 SWAP2 SWAP1 PUSH2 0xB13 JUMP JUMPDEST TIMESTAMP LT PUSH2 0x2C3 JUMPI PUSH1 0x40 MLOAD PUSH4 0x2462667B PUSH1 0xE2 SHL DUP2 MSTORE PUSH1 0x4 ADD PUSH1 0x40 MLOAD DUP1 SWAP2 SUB SWAP1 REVERT JUMPDEST PUSH1 0x2 DUP1 SLOAD PUSH1 0xFF NOT AND PUSH1 0x1 SWAP1 DUP2 OR SWAP1 SWAP2 SSTORE SLOAD PUSH1 0x0 SWAP1 PUSH1 0x64 SWAP1 PUSH2 0x2E5 SWAP1 PUSH1 0x5 PUSH2 0xB2C JUMP JUMPDEST PUSH2 0x2EF SWAP2 SWAP1 PUSH2 0xB43 JUMP JUMPDEST SWAP1 POP PUSH1 0x0 DUP2 PUSH1 0x1 SLOAD PUSH2 0x301 SWAP2 SWAP1 PUSH2 0xB65 JUMP JUMPDEST SWAP1 POP PUSH1 0x0 PUSH32 0x0 PUSH1 0x1 PUSH1 0x1 PUSH1 0xA0 SHL SUB AND DUP3 PUSH1 0x40 MLOAD PUSH1 0x0 PUSH1 0x40 MLOAD DUP1 DUP4 SUB DUP2 DUP6 DUP8 GAS CALL SWAP3 POP POP POP RETURNDATASIZE DUP1 PUSH1 0x0 DUP2 EQ PUSH2 0x370 JUMPI PUSH1 0x40 MLOAD SWAP2 POP PUSH1 0x1F NOT PUSH1 0x3F RETURNDATASIZE ADD AND DUP3 ADD PUSH1 0x40 MSTORE RETURNDATASIZE DUP3 MSTORE RETURNDATASIZE PUSH1 0x0 PUSH1 0x20 DUP5 ADD RETURNDATACOPY PUSH2 0x375 JUMP JUMPDEST PUSH1 0x60 SWAP2 POP JUMPDEST POP POP SWAP1 POP DUP1 PUSH2 0x3C4 JUMPI PUSH1 0x40 MLOAD PUSH3 0x461BCD PUSH1 0xE5 SHL DUP2 MSTORE PUSH1 0x20 PUSH1 0x4 DUP3 ADD MSTORE PUSH1 0x16 PUSH1 0x24 DUP3 ADD MSTORE PUSH22 0x111C9A5D995C881D1C985B9CD9995C8819985A5B1959 PUSH1 0x52 SHL PUSH1 0x44 DUP3 ADD MSTORE PUSH1 0x64 ADD JUMPDEST PUSH1 0x40 MLOAD DUP1 SWAP2 SUB SWAP1 REVERT JUMPDEST PUSH1 0x40 MLOAD PUSH20 0xCB7F49A123087AB9B6594A3B3169C2CC6D15797A SWAP1 DUP2 SWAP1 DUP6 SWAP1 PUSH1 0x0 DUP2 DUP2 DUP2 DUP6 DUP8 GAS CALL SWAP3 POP POP POP RETURNDATASIZE DUP1 PUSH1 0x0 DUP2 EQ PUSH2 0x41A JUMPI PUSH1 0x40 MLOAD SWAP2 POP PUSH1 0x1F NOT PUSH1 0x3F RETURNDATASIZE ADD AND DUP3 ADD PUSH1 0x40 MSTORE RETURNDATASIZE DUP3 MSTORE RETURNDATASIZE PUSH1 0x0 PUSH1 0x20 DUP5 ADD RETURNDATACOPY PUSH2 0x41F JUMP JUMPDEST PUSH1 0x60 SWAP2 POP JUMPDEST POP POP DUP1 SWAP3 POP POP DUP2 PUSH2 0x468 JUMPI PUSH1 0x40 MLOAD PUSH3 0x461BCD PUSH1 0xE5 SHL DUP2 MSTORE PUSH1 0x20 PUSH1 0x4 DUP3 ADD MSTORE PUSH1 0x13 PUSH1 0x24 DUP3 ADD MSTORE PUSH19 0x119959481D1C985B9CD9995C8819985A5B1959 PUSH1 0x6A SHL PUSH1 0x44 DUP3 ADD MSTORE PUSH1 0x64 ADD PUSH2 0x3BB JUMP JUMPDEST DUP1 PUSH1 0x1 PUSH1 0x1 PUSH1 0xA0 SHL SUB AND PUSH32 0x0 PUSH1 0x1 PUSH1 0x1 PUSH1 0xA0 SHL SUB AND PUSH32 0x230C988E3934B87DF8F6CFBDEA23B953743E4B315EB6BA859A72703E6F356A76 DUP6 DUP8 TIMESTAMP PUSH1 0x40 MLOAD PUSH2 0x4E0 SWAP4 SWAP3 SWAP2 SWAP1 SWAP3 DUP4 MSTORE PUSH1 0x20 DUP4 ADD SWAP2 SWAP1 SWAP2 MSTORE PUSH1 0x40 DUP3 ADD MSTORE PUSH1 0x60 ADD SWAP1 JUMP JUMPDEST PUSH1 0x40 MLOAD DUP1 SWAP2 SUB SWAP1 LOG3 POP POP POP POP PUSH2 0x4F6 PUSH1 0x1 PUSH1 0x0 SSTORE JUMP JUMPDEST JUMP JUMPDEST CALLER PUSH1 0x1 PUSH1 0x1 PUSH1 0xA0 SHL SUB PUSH32 0x0 AND EQ PUSH2 0x541 JUMPI PUSH1 0x40 MLOAD PUSH4 0x6073237 PUSH1 0xE1 SHL DUP2 MSTORE PUSH1 0x4 ADD PUSH1 0x40 MLOAD DUP1 SWAP2 SUB SWAP1 REVERT JUMPDEST PUSH1 0x2 SLOAD PUSH1 0xFF AND ISZERO PUSH2 0x565 JUMPI PUSH1 0x40 MLOAD PUSH4 0x195332A5 PUSH1 0xE0 SHL DUP2 MSTORE PUSH1 0x4 ADD PUSH1 0x40 MLOAD DUP1 SWAP2 SUB SWAP1 REVERT JUMPDEST PUSH2 0x56D PUSH2 0xAD3 JUMP JUMPDEST PUSH1 0x5 SLOAD PUSH1 0x3 SLOAD PUSH2 0x57D SWAP2 SWAP1 PUSH2 0xB13 JUMP JUMPDEST TIMESTAMP LT PUSH2 0x59C JUMPI PUSH1 0x40 MLOAD PUSH4 0x6C2EB437 PUSH1 0xE1 SHL DUP2 MSTORE PUSH1 0x4 ADD PUSH1 0x40 MLOAD DUP1 SWAP2 SUB SWAP1 REVERT JUMPDEST PUSH1 0x2 DUP1 SLOAD PUSH1 0xFF NOT AND PUSH1 0x1 SWAP1 DUP2 OR SWAP1 SWAP2 SSTORE SLOAD PUSH1 0x40 MLOAD PUSH1 0x0 SWAP2 PUSH1 0x1 PUSH1 0x1 PUSH1 0xA0 SHL SUB PUSH32 0x0 AND SWAP2 DUP4 DUP2 DUP2 DUP2 DUP6 DUP8 GAS CALL SWAP3 POP POP POP RETURNDATASIZE DUP1 PUSH1 0x0 DUP2 EQ PUSH2 0x616 JUMPI PUSH1 0x40 MLOAD SWAP2 POP PUSH1 0x1F NOT PUSH1 0x3F RETURNDATASIZE ADD AND DUP3 ADD PUSH1 0x40 MSTORE RETURNDATASIZE DUP3 MSTORE RETURNDATASIZE PUSH1 0x0 PUSH1 0x20 DUP5 ADD RETURNDATACOPY PUSH2 0x61B JUMP JUMPDEST PUSH1 0x60 SWAP2 POP JUMPDEST POP POP SWAP1 POP DUP1 PUSH2 0x65C JUMPI PUSH1 0x40 MLOAD PUSH3 0x461BCD PUSH1 0xE5 SHL DUP2 MSTORE PUSH1 0x20 PUSH1 0x4 DUP3 ADD MSTORE PUSH1 0xD PUSH1 0x24 DUP3 ADD MSTORE PUSH13 0x1499599D5B990819985A5B1959 PUSH1 0x9A SHL PUSH1 0x44 DUP3 ADD MSTORE PUSH1 0x64 ADD PUSH2 0x3BB JUMP JUMPDEST PUSH1 0x1 SLOAD PUSH1 0x40 DUP1 MLOAD SWAP2 DUP3 MSTORE TIMESTAMP PUSH1 0x20 DUP4 ADD MSTORE PUSH1 0x1 PUSH1 0x1 PUSH1 0xA0 SHL SUB PUSH32 0x0 AND SWAP2 PUSH32 0x2DC8E290002F06FC0085BBCA9DFB8B415CF4D1178950C72FF9EE8F4D8878EE66 SWAP2 ADD PUSH1 0x40 MLOAD DUP1 SWAP2 SUB SWAP1 LOG2 POP PUSH2 0x4F6 PUSH1 0x1 PUSH1 0x0 SSTORE JUMP JUMPDEST CALLER PUSH1 0x1 PUSH1 0x1 PUSH1 0xA0 SHL SUB PUSH32 0x0 AND EQ PUSH2 0x716 JUMPI PUSH1 0x40 MLOAD PUSH4 0x6073237 PUSH1 0xE1 SHL DUP2 MSTORE PUSH1 0x4 ADD PUSH1 0x40 MLOAD DUP1 SWAP2 SUB SWAP1 REVERT JUMPDEST PUSH1 0x2 SLOAD PUSH1 0xFF AND ISZERO PUSH2 0x73A JUMPI PUSH1 0x40 MLOAD PUSH4 0x195332A5 PUSH1 0xE0 SHL DUP2 MSTORE PUSH1 0x4 ADD PUSH1 0x40 MLOAD DUP1 SWAP2 SUB SWAP1 REVERT JUMPDEST PUSH2 0x742 PUSH2 0xAD3 JUMP JUMPDEST PUSH1 0x4 SLOAD PUSH1 0x3 SLOAD PUSH2 0x752 SWAP2 SWAP1 PUSH2 0xB13 JUMP JUMPDEST TIMESTAMP LT ISZERO PUSH2 0x772 JUMPI PUSH1 0x40 MLOAD PUSH4 0x19DD465D PUSH1 0xE0 SHL DUP2 MSTORE PUSH1 0x4 ADD PUSH1 0x40 MLOAD DUP1 SWAP2 SUB SWAP1 REVERT JUMPDEST PUSH1 0x2 DUP1 SLOAD PUSH1 0xFF NOT AND PUSH1 0x1 SWAP1 DUP2 OR SWAP1 SWAP2 SSTORE SLOAD PUSH1 0x0 SWAP1 PUSH1 0x64 SWAP1 PUSH2 0x794 SWAP1 PUSH1 0x5 PUSH2 0xB2C JUMP JUMPDEST PUSH2 0x79E SWAP2 SWAP1 PUSH2 0xB43 JUMP JUMPDEST SWAP1 POP PUSH1 0x0 DUP2 PUSH1 0x1 SLOAD PUSH2 0x7B0 SWAP2 SWAP1 PUSH2 0xB65 JUMP JUMPDEST SWAP1 POP PUSH1 0x0 PUSH32 0x0 PUSH1 0x1 PUSH1 0x1 PUSH1 0xA0 SHL SUB AND DUP3 PUSH1 0x40 MLOAD PUSH1 0x0 PUSH1 0x40 MLOAD DUP1 DUP4 SUB DUP2 DUP6 DUP8 GAS CALL SWAP3 POP POP POP RETURNDATASIZE DUP1 PUSH1 0x0 DUP2 EQ PUSH2 0x81F JUMPI PUSH1 0x40 MLOAD SWAP2 POP PUSH1 0x1F NOT PUSH1 0x3F RETURNDATASIZE ADD AND DUP3 ADD PUSH1 0x40 MSTORE RETURNDATASIZE DUP3 MSTORE RETURNDATASIZE PUSH1 0x0 PUSH1 0x20 DUP5 ADD RETURNDATACOPY PUSH2 0x824 JUMP JUMPDEST PUSH1 0x60 SWAP2 POP JUMPDEST POP POP SWAP1 POP DUP1 PUSH2 0x3C4 JUMPI PUSH1 0x40 MLOAD PUSH3 0x461BCD PUSH1 0xE5 SHL DUP2 MSTORE PUSH1 0x20 PUSH1 0x4 DUP3 ADD MSTORE PUSH1 0x13 PUSH1 0x24 DUP3 ADD MSTORE PUSH19 0x105D5D1BC81C995B19585CD94819985A5B1959 PUSH1 0x6A SHL PUSH1 0x44 DUP3 ADD MSTORE PUSH1 0x64 ADD PUSH2 0x3BB JUMP JUMPDEST CALLER PUSH1 0x1 PUSH1 0x1 PUSH1 0xA0 SHL SUB PUSH32 0x0 AND EQ PUSH2 0x8B4 JUMPI PUSH1 0x40 MLOAD PUSH4 0x1862871B PUSH1 0xE0 SHL DUP2 MSTORE PUSH1 0x4 ADD PUSH1 0x40 MLOAD DUP1 SWAP2 SUB SWAP1 REVERT JUMPDEST PUSH1 0x2 SLOAD PUSH1 0xFF AND ISZERO PUSH2 0x8D8 JUMPI PUSH1 0x40 MLOAD PUSH4 0x195332A5 PUSH1 0xE0 SHL DUP2 MSTORE PUSH1 0x4 ADD PUSH1 0x40 MLOAD DUP1 SWAP2 SUB SWAP1 REVERT JUMPDEST PUSH2 0x8E0 PUSH2 0xAD3 JUMP JUMPDEST PUSH1 0x5 SLOAD PUSH1 0x3 SLOAD PUSH2 0x8F0 SWAP2 SWAP1 PUSH2 0xB13 JUMP JUMPDEST TIMESTAMP LT ISZERO PUSH2 0x910 JUMPI PUSH1 0x40 MLOAD PUSH4 0x7C7B0585 PUSH1 0xE0 SHL DUP2 MSTORE PUSH1 0x4 ADD PUSH1 0x40 MLOAD DUP1 SWAP2 SUB SWAP1 REVERT JUMPDEST PUSH1 0x2 DUP1 SLOAD PUSH1 0xFF NOT AND PUSH1 0x1 SWAP1 DUP2 OR SWAP1 SWAP2 SSTORE SLOAD PUSH1 0x40 MLOAD PUSH1 0x0 SWAP2 PUSH1 0x1 PUSH1 0x1 PUSH1 0xA0 SHL SUB PUSH32 0x0 AND SWAP2 DUP4 DUP2 DUP2 DUP2 DUP6 DUP8 GAS CALL SWAP3 POP POP POP RETURNDATASIZE DUP1 PUSH1 0x0 DUP2 EQ PUSH2 0x98A JUMPI PUSH1 0x40 MLOAD SWAP2 POP PUSH1 0x1F NOT PUSH1 0x3F RETURNDATASIZE ADD AND DUP3 ADD PUSH1 0x40 MSTORE RETURNDATASIZE DUP3 MSTORE RETURNDATASIZE PUSH1 0x0 PUSH1 0x20 DUP5 ADD RETURNDATACOPY PUSH2 0x98F JUMP JUMPDEST PUSH1 0x60 SWAP2 POP JUMPDEST POP POP SWAP1 POP DUP1 PUSH2 0x65C JUMPI PUSH1 0x40 MLOAD PUSH3 0x461BCD PUSH1 0xE5 SHL DUP2 MSTORE PUSH1 0x20 PUSH1 0x4 DUP3 ADD MSTORE PUSH1 0x12 PUSH1 0x24 DUP3 ADD MSTORE PUSH18 0x105D5D1BC81C99599D5B990819985A5B1959 PUSH1 0x72 SHL PUSH1 0x44 DUP3 ADD MSTORE PUSH1 0x64 ADD PUSH2 0x3BB JUMP JUMPDEST CALLER PUSH1 0x1 PUSH1 0x1 PUSH1 0xA0 SHL SUB PUSH32 0x0 AND EQ PUSH2 0xA1E JUMPI PUSH1 0x40 MLOAD PUSH4 0x1862871B PUSH1 0xE0 SHL DUP2 MSTORE PUSH1 0x4 ADD PUSH1 0x40 MLOAD DUP1 SWAP2 SUB SWAP1 REVERT JUMPDEST PUSH1 0x2 SLOAD PUSH1 0xFF AND ISZERO PUSH2 0xA42 JUMPI PUSH1 0x40 MLOAD PUSH4 0x195332A5 PUSH1 0xE0 SHL DUP2 MSTORE PUSH1 0x4 ADD PUSH1 0x40 MLOAD DUP1 SWAP2 SUB SWAP1 REVERT JUMPDEST PUSH2 0xA4A PUSH2 0xAD3 JUMP JUMPDEST CALLVALUE PUSH1 0x0 SUB PUSH2 0xA6B JUMPI PUSH1 0x40 MLOAD PUSH4 0x56316E87 PUSH1 0xE0 SHL DUP2 MSTORE PUSH1 0x4 ADD PUSH1 0x40 MLOAD DUP1 SWAP2 SUB SWAP1 REVERT JUMPDEST CALLVALUE PUSH1 0x1 PUSH1 0x0 DUP3 DUP3 SLOAD PUSH2 0xA7D SWAP2 SWAP1 PUSH2 0xB13 JUMP JUMPDEST SWAP1 SWAP2 SSTORE POP POP TIMESTAMP PUSH1 0x3 DUP2 SWAP1 SSTORE PUSH1 0x40 MLOAD CALLER SWAP2 PUSH32 0x73A19DD210F1A7F902193214C0EE91DD35EE5B4D920CBA8D519ECA65A7B488CA SWAP2 PUSH2 0xAC1 SWAP2 CALLVALUE DUP3 MSTORE PUSH1 0x20 DUP3 ADD MSTORE PUSH1 0x40 ADD SWAP1 JUMP JUMPDEST PUSH1 0x40 MLOAD DUP1 SWAP2 SUB SWAP1 LOG2 PUSH2 0x4F6 PUSH1 0x1 PUSH1 0x0 SSTORE JUMP JUMPDEST PUSH1 0x2 PUSH1 0x0 SLOAD SUB PUSH2 0xAF6 JUMPI PUSH1 0x40 MLOAD PUSH4 0x3EE5AEB5 PUSH1 0xE0 SHL DUP2 MSTORE PUSH1 0x4 ADD PUSH1 0x40 MLOAD DUP1 SWAP2 SUB SWAP1 REVERT JUMPDEST PUSH1 0x2 PUSH1 0x0 SSTORE JUMP JUMPDEST PUSH4 0x4E487B71 PUSH1 0xE0 SHL PUSH1 0x0 MSTORE PUSH1 0x11 PUSH1 0x4 MSTORE PUSH1 0x24 PUSH1 0x0 REVERT JUMPDEST DUP1 DUP3 ADD DUP1 DUP3 GT ISZERO PUSH2 0xB26 JUMPI PUSH2 0xB26 PUSH2 0xAFD JUMP JUMPDEST SWAP3 SWAP2 POP POP JUMP JUMPDEST DUP1 DUP3 MUL DUP2 ISZERO DUP3 DUP3 DIV DUP5 EQ OR PUSH2 0xB26 JUMPI PUSH2 0xB26 PUSH2 0xAFD JUMP JUMPDEST PUSH1 0x0 DUP3 PUSH2 0xB60 JUMPI PUSH4 0x4E487B71 PUSH1 0xE0 SHL PUSH1 0x0 MSTORE PUSH1 0x12 PUSH1 0x4 MSTORE PUSH1 0x24 PUSH1 0x0 REVERT JUMPDEST POP DIV SWAP1 JUMP JUMPDEST DUP2 DUP2 SUB DUP2 DUP2 GT ISZERO PUSH2 0xB26 JUMPI PUSH2 0xB26 PUSH2 0xAFD JUMP INVALID LOG2 PUSH5 0x6970667358 0x22 SLT KECCAK256 0x49 SIGNEXTEND SLOAD BALANCE SWAP3 DUP5 ORIGIN JUMPI 0xBB SLOAD 0x2C SWAP4 ADDMOD SAR 0x4C PUSH15 0xCCA2DB8464778E7A5EB3A16C2059F9 0xD5 PUSH5 0x736F6C6343 STOP ADDMOD EQ STOP CALLER "},"gasEstimates":{"creation":{"codeDepositCost":"598000","executionCost":"infinite","totalCost":"infinite"},"external":{"amount()":"2284","approveRelease()":"infinite","autoRefund()":"infinite","autoRelease()":"infinite","deposit()":"infinite","depositTimestamp()":"2395","driver()":"infinite","isCompleted()":"2420","passenger()":"infinite","refund()":"infinite","refundTimeout()":"2372","releaseTimeout()":"2307"}},"methodIdentifiers":{"amount()":"aa8c217c","approveRelease()":"1e31a6dd","autoRefund()":"b723ae75","autoRelease()":"a36693b1","deposit()":"d0e30db0","depositTimestamp()":"a5854123","driver()":"6ecc5d62","isCompleted()":"fa391c64","passenger()":"c11ae86f","refund()":"590e1ae3","refundTimeout()":"dba26783","releaseTimeout()":"3a10ec1a"}},"storageLayout":{"storage":[{"astId":10,"contract":"contracts/Payement.sol:Escrow","label":"_status","offset":0,"slot":"0","type":"t_uint256"},{"astId":95,"contract":"contracts/Payement.sol:Escrow","label":"amount","offset":0,"slot":"1","type":"t_uint256"},{"astId":97,"contract":"contracts/Payement.sol:Escrow","label":"isCompleted","offset":0,"slot":"2","type":"t_bool"},{"astId":99,"contract":"contracts/Payement.sol:Escrow","label":"depositTimestamp","offset":0,"slot":"3","type":"t_uint256"},{"astId":101,"contract":"contracts/Payement.sol:Escrow","label":"releaseTimeout","offset":0,"slot":"4","type":"t_uint256"},{"astId":103,"contract":"contracts/Payement.sol:Escrow","label":"refundTimeout","offset":0,"slot":"5","type":"t_uint256"}],"types":{"t_bool":{"encoding":"inplace","label":"bool","numberOfBytes":"1"},"t_uint256":{"encoding":"inplace","label":"uint256","numberOfBytes":"32"}}},"userdoc":{"kind":"user","methods":{},"version":1}}}}