{"contract/Payement.sol":{"Escrow":{"abi":[{"inputs":[{"internalType":"address","name":"_driver","type":"address"},{"internalType":"uint256","name":"_releaseTimeout","type":"uint256"},{"internalType":"uint256","name":"_refundTimeout","type":"uint256"}],"stateMutability":"nonpayable","type":"constructor"},{"inputs":[],"name":"AlreadyCompleted","type":"error"},{"inputs":[],"name":"NotDriver","type":"error"},{"inputs":[],"name":"NotPassenger","type":"error"},{"inputs":[],"name":"TimeoutNotReached","type":"error"},{"anonymous":false,"inputs":[{"indexed":true,"internalType":"address","name":"passenger","type":"address"},{"indexed":false,"internalType":"uint256","name":"amount","type":"uint256"}],"name":"Deposited","type":"event"},{"anonymous":false,"inputs":[{"indexed":true,"internalType":"address","name":"passenger","type":"address"},{"indexed":false,"internalType":"uint256","name":"amount","type":"uint256"}],"name":"Refunded","type":"event"},{"anonymous":false,"inputs":[{"indexed":true,"internalType":"address","name":"driver","type":"address"},{"indexed":false,"internalType":"uint256","name":"amount","type":"uint256"}],"name":"Released","type":"event"},{"inputs":[],"name":"amount","outputs":[{"internalType":"uint256","name":"","type":"uint256"}],"stateMutability":"view","type":"function"},{"inputs":[],"name":"approveRelease","outputs":[],"stateMutability":"nonpayable","type":"function"},{"inputs":[],"name":"autoRefund","outputs":[],"stateMutability":"nonpayable","type":"function"},{"inputs":[],"name":"autoRelease","outputs":[],"stateMutability":"nonpayable","type":"function"},{"inputs":[],"name":"deposit","outputs":[],"stateMutability":"payable","type":"function"},{"inputs":[],"name":"depositTimestamp","outputs":[{"internalType":"uint256","name":"","type":"uint256"}],"stateMutability":"view","type":"function"},{"inputs":[],"name":"driver","outputs":[{"internalType":"address","name":"","type":"address"}],"stateMutability":"view","type":"function"},{"inputs":[],"name":"isCompleted","outputs":[{"internalType":"bool","name":"","type":"bool"}],"stateMutability":"view","type":"function"},{"inputs":[],"name":"passenger","outputs":[{"internalType":"address","name":"","type":"address"}],"stateMutability":"view","type":"function"},{"inputs":[],"name":"refund","outputs":[],"stateMutability":"nonpayable","type":"function"},{"inputs":[],"name":"refundTimeout","outputs":[{"internalType":"uint256","name":"","type":"uint256"}],"stateMutability":"view","type":"function"},{"inputs":[],"name":"releaseTimeout","outputs":[{"internalType":"uint256","name":"","type":"uint256"}],"stateMutability":"view","type":"function"}],"devdoc":{"kind":"dev","methods":{"approveRelease()":{"details":"Passenger approves release of funds to driver before timeout."},"autoRefund()":{"details":"Passenger can auto-refund funds after refundTimeout."},"autoRelease()":{"details":"Driver can auto-release funds after releaseTimeout."},"constructor":{"details":"Constructor sets the driver and initializes timeouts.","params":{"_driver":"Address of the driver.","_refundTimeout":"Timeout in seconds after which passenger can auto-refund.","_releaseTimeout":"Timeout in seconds after which driver can auto-claim."}},"deposit()":{"details":"Deposit ETH into escrow by passenger. Records deposit timestamp."},"refund()":{"details":"Driver refunds passenger before refund timeout."}},"version":1},"evm":{"bytecode":{"linkReferences":{},"object":"608060405234801561001057600080fd5b5060405161097c38038061097c83398101604081905261002f91610069565b60008054336001600160a01b031991821617909155600180549091166001600160a01b0394909416939093179092556005556006556100ac565b60008060006060848603121561007e57600080fd5b83516001600160a01b038116811461009557600080fd5b602085015160409095015190969495509392505050565b6108c1806100bb6000396000f3fe6080604052600436106100a75760003560e01c8063aa8c217c11610064578063aa8c217c14610164578063b723ae751461017a578063c11ae86f1461018f578063d0e30db0146101af578063dba26783146101b7578063fa391c64146101cd57600080fd5b80631e31a6dd146100ac5780633a10ec1a146100c3578063590e1ae3146100ec5780636ecc5d6214610101578063a36693b114610139578063a58541231461014e575b600080fd5b3480156100b857600080fd5b506100c16101f7565b005b3480156100cf57600080fd5b506100d960055481565b6040519081526020015b60405180910390f35b3480156100f857600080fd5b506100c1610390565b34801561010d57600080fd5b50600154610121906001600160a01b031681565b6040516001600160a01b0390911681526020016100e3565b34801561014557600080fd5b506100c1610518565b34801561015a57600080fd5b506100d960045481565b34801561017057600080fd5b506100d960025481565b34801561018657600080fd5b506100c161066f565b34801561019b57600080fd5b50600054610121906001600160a01b031681565b6100c16107c3565b3480156101c357600080fd5b506100d960065481565b3480156101d957600080fd5b506003546101e79060ff1681565b60405190151581526020016100e3565b6000546001600160a01b0316331461022257604051631862871b60e01b815260040160405180910390fd5b60035460ff16156102465760405163195332a560e01b815260040160405180910390fd5b6005546004546102569190610864565b42106102a25760405162461bcd60e51b815260206004820152601660248201527514995b19585cd9481d1a5b595bdd5d081c185cdcd95960521b60448201526064015b60405180910390fd5b6003805460ff19166001908117909155546002546040516000926001600160a01b031691908381818185875af1925050503d80600081146102ff576040519150601f19603f3d011682016040523d82523d6000602084013e610304565b606091505b50509050806103475760405162461bcd60e51b815260206004820152600f60248201526e151c985b9cd9995c8819985a5b1959608a1b6044820152606401610299565b6001546002546040519081526001600160a01b03909116907fb21fb52d5749b80f3182f8c6992236b5e5576681880914484d7f4c9b062e619e906020015b60405180910390a250565b6001546001600160a01b031633146103bb57604051630607323760e11b815260040160405180910390fd5b60035460ff16156103df5760405163195332a560e01b815260040160405180910390fd5b6006546004546103ef9190610864565b42106104355760405162461bcd60e51b81526020600482015260156024820152741499599d5b99081d1a5b595bdd5d081c185cdcd959605a1b6044820152606401610299565b6003805460ff19166001179055600080546002546040516001600160a01b03909216918381818185875af1925050503d8060008114610490576040519150601f19603f3d011682016040523d82523d6000602084013e610495565b606091505b50509050806104d65760405162461bcd60e51b815260206004820152600d60248201526c1499599d5b990819985a5b1959609a1b6044820152606401610299565b6000546002546040519081526001600160a01b03909116907fd7dee2702d63ad89917b6a4da9981c90c4d24f8c2bdfd64c604ecae57d8d065190602001610385565b6001546001600160a01b0316331461054357604051630607323760e11b815260040160405180910390fd5b60035460ff16156105675760405163195332a560e01b815260040160405180910390fd5b6005546004546105779190610864565b4210156105c65760405162461bcd60e51b815260206004820152601b60248201527f52656c656173652074696d656f7574206e6f74207265616368656400000000006044820152606401610299565b6003805460ff19166001908117909155546002546040516000926001600160a01b031691908381818185875af1925050503d8060008114610623576040519150601f19603f3d011682016040523d82523d6000602084013e610628565b606091505b50509050806103475760405162461bcd60e51b8152602060048201526013602482015272105d5d1bc81c995b19585cd94819985a5b1959606a1b6044820152606401610299565b6000546001600160a01b0316331461069a57604051631862871b60e01b815260040160405180910390fd5b60035460ff16156106be5760405163195332a560e01b815260040160405180910390fd5b6006546004546106ce9190610864565b42101561071d5760405162461bcd60e51b815260206004820152601a60248201527f526566756e642074696d656f7574206e6f7420726561636865640000000000006044820152606401610299565b6003805460ff19166001179055600080546002546040516001600160a01b03909216918381818185875af1925050503d8060008114610778576040519150601f19603f3d011682016040523d82523d6000602084013e61077d565b606091505b50509050806104d65760405162461bcd60e51b8152602060048201526012602482015271105d5d1bc81c99599d5b990819985a5b195960721b6044820152606401610299565b6000546001600160a01b031633146107ee57604051631862871b60e01b815260040160405180910390fd5b60035460ff16156108125760405163195332a560e01b815260040160405180910390fd5b34600260008282546108249190610864565b90915550504260045560405134815233907f2da466a7b24304f47e87fa2e1e5a81b9831ce54fec19055ce277ca2f39ba42c49060200160405180910390a2565b8082018082111561088557634e487b7160e01b600052601160045260246000fd5b9291505056fea2646970667358221220cf7a2b70b9b249f5689e9e73bedeb2df8df60b1a3ef95a6684083ed859ef547e64736f6c63430008140033","opcodes":"PUSH1 0x80 PUSH1 0x40 MSTORE CALLVALUE DUP1 ISZERO PUSH2 0x10 JUMPI PUSH1 0x0 DUP1 REVERT JUMPDEST POP PUSH1 0x40 MLOAD PUSH2 0x97C CODESIZE SUB DUP1 PUSH2 0x97C DUP4 CODECOPY DUP2 ADD PUSH1 0x40 DUP2 SWAP1 MSTORE PUSH2 0x2F SWAP2 PUSH2 0x69 JUMP JUMPDEST PUSH1 0x0 DUP1 SLOAD CALLER PUSH1 0x1 PUSH1 0x1 PUSH1 0xA0 SHL SUB NOT SWAP2 DUP3 AND OR SWAP1 SWAP2 SSTORE PUSH1 0x1 DUP1 SLOAD SWAP1 SWAP2 AND PUSH1 0x1 PUSH1 0x1 PUSH1 0xA0 SHL SUB SWAP5 SWAP1 SWAP5 AND SWAP4 SWAP1 SWAP4 OR SWAP1 SWAP3 SSTORE PUSH1 0x5 SSTORE PUSH1 0x6 SSTORE PUSH2 0xAC JUMP JUMPDEST PUSH1 0x0 DUP1 PUSH1 0x0 PUSH1 0x60 DUP5 DUP7 SUB SLT ISZERO PUSH2 0x7E JUMPI PUSH1 0x0 DUP1 REVERT JUMPDEST DUP4 MLOAD PUSH1 0x1 PUSH1 0x1 PUSH1 0xA0 SHL SUB DUP2 AND DUP2 EQ PUSH2 0x95 JUMPI PUSH1 0x0 DUP1 REVERT JUMPDEST PUSH1 0x20 DUP6 ADD MLOAD PUSH1 0x40 SWAP1 SWAP6 ADD MLOAD SWAP1 SWAP7 SWAP5 SWAP6 POP SWAP4 SWAP3 POP POP POP JUMP JUMPDEST PUSH2 0x8C1 DUP1 PUSH2 0xBB PUSH1 0x0 CODECOPY PUSH1 0x0 RETURN INVALID PUSH1 0x80 PUSH1 0x40 MSTORE PUSH1 0x4 CALLDATASIZE LT PUSH2 0xA7 JUMPI PUSH1 0x0 CALLDATALOAD PUSH1 0xE0 SHR DUP1 PUSH4 0xAA8C217C GT PUSH2 0x64 JUMPI DUP1 PUSH4 0xAA8C217C EQ PUSH2 0x164 JUMPI DUP1 PUSH4 0xB723AE75 EQ PUSH2 0x17A JUMPI DUP1 PUSH4 0xC11AE86F EQ PUSH2 0x18F JUMPI DUP1 PUSH4 0xD0E30DB0 EQ PUSH2 0x1AF JUMPI DUP1 PUSH4 0xDBA26783 EQ PUSH2 0x1B7 JUMPI DUP1 PUSH4 0xFA391C64 EQ PUSH2 0x1CD JUMPI PUSH1 0x0 DUP1 REVERT JUMPDEST DUP1 PUSH4 0x1E31A6DD EQ PUSH2 0xAC JUMPI DUP1 PUSH4 0x3A10EC1A EQ PUSH2 0xC3 JUMPI DUP1 PUSH4 0x590E1AE3 EQ PUSH2 0xEC JUMPI DUP1 PUSH4 0x6ECC5D62 EQ PUSH2 0x101 JUMPI DUP1 PUSH4 0xA36693B1 EQ PUSH2 0x139 JUMPI DUP1 PUSH4 0xA5854123 EQ PUSH2 0x14E JUMPI JUMPDEST PUSH1 0x0 DUP1 REVERT JUMPDEST CALLVALUE DUP1 ISZERO PUSH2 0xB8 JUMPI PUSH1 0x0 DUP1 REVERT JUMPDEST POP PUSH2 0xC1 PUSH2 0x1F7 JUMP JUMPDEST STOP JUMPDEST CALLVALUE DUP1 ISZERO PUSH2 0xCF JUMPI PUSH1 0x0 DUP1 REVERT JUMPDEST POP PUSH2 0xD9 PUSH1 0x5 SLOAD DUP2 JUMP JUMPDEST PUSH1 0x40 MLOAD SWAP1 DUP2 MSTORE PUSH1 0x20 ADD JUMPDEST PUSH1 0x40 MLOAD DUP1 SWAP2 SUB SWAP1 RETURN JUMPDEST CALLVALUE DUP1 ISZERO PUSH2 0xF8 JUMPI PUSH1 0x0 DUP1 REVERT JUMPDEST POP PUSH2 0xC1 PUSH2 0x390 JUMP JUMPDEST CALLVALUE DUP1 ISZERO PUSH2 0x10D JUMPI PUSH1 0x0 DUP1 REVERT JUMPDEST POP PUSH1 0x1 SLOAD PUSH2 0x121 SWAP1 PUSH1 0x1 PUSH1 0x1 PUSH1 0xA0 SHL SUB AND DUP2 JUMP JUMPDEST PUSH1 0x40 MLOAD PUSH1 0x1 PUSH1 0x1 PUSH1 0xA0 SHL SUB SWAP1 SWAP2 AND DUP2 MSTORE PUSH1 0x20 ADD PUSH2 0xE3 JUMP JUMPDEST CALLVALUE DUP1 ISZERO PUSH2 0x145 JUMPI PUSH1 0x0 DUP1 REVERT JUMPDEST POP PUSH2 0xC1 PUSH2 0x518 JUMP JUMPDEST CALLVALUE DUP1 ISZERO PUSH2 0x15A JUMPI PUSH1 0x0 DUP1 REVERT JUMPDEST POP PUSH2 0xD9 PUSH1 0x4 SLOAD DUP2 JUMP JUMPDEST CALLVALUE DUP1 ISZERO PUSH2 0x170 JUMPI PUSH1 0x0 DUP1 REVERT JUMPDEST POP PUSH2 0xD9 PUSH1 0x2 SLOAD DUP2 JUMP JUMPDEST CALLVALUE DUP1 ISZERO PUSH2 0x186 JUMPI PUSH1 0x0 DUP1 REVERT JUMPDEST POP PUSH2 0xC1 PUSH2 0x66F JUMP JUMPDEST CALLVALUE DUP1 ISZERO PUSH2 0x19B JUMPI PUSH1 0x0 DUP1 REVERT JUMPDEST POP PUSH1 0x0 SLOAD PUSH2 0x121 SWAP1 PUSH1 0x1 PUSH1 0x1 PUSH1 0xA0 SHL SUB AND DUP2 JUMP JUMPDEST PUSH2 0xC1 PUSH2 0x7C3 JUMP JUMPDEST CALLVALUE DUP1 ISZERO PUSH2 0x1C3 JUMPI PUSH1 0x0 DUP1 REVERT JUMPDEST POP PUSH2 0xD9 PUSH1 0x6 SLOAD DUP2 JUMP JUMPDEST CALLVALUE DUP1 ISZERO PUSH2 0x1D9 JUMPI PUSH1 0x0 DUP1 REVERT JUMPDEST POP PUSH1 0x3 SLOAD PUSH2 0x1E7 SWAP1 PUSH1 0xFF AND DUP2 JUMP JUMPDEST PUSH1 0x40 MLOAD SWAP1 ISZERO ISZERO DUP2 MSTORE PUSH1 0x20 ADD PUSH2 0xE3 JUMP JUMPDEST PUSH1 0x0 SLOAD PUSH1 0x1 PUSH1 0x1 PUSH1 0xA0 SHL SUB AND CALLER EQ PUSH2 0x222 JUMPI PUSH1 0x40 MLOAD PUSH4 0x1862871B PUSH1 0xE0 SHL DUP2 MSTORE PUSH1 0x4 ADD PUSH1 0x40 MLOAD DUP1 SWAP2 SUB SWAP1 REVERT JUMPDEST PUSH1 0x3 SLOAD PUSH1 0xFF AND ISZERO PUSH2 0x246 JUMPI PUSH1 0x40 MLOAD PUSH4 0x195332A5 PUSH1 0xE0 SHL DUP2 MSTORE PUSH1 0x4 ADD PUSH1 0x40 MLOAD DUP1 SWAP2 SUB SWAP1 REVERT JUMPDEST PUSH1 0x5 SLOAD PUSH1 0x4 SLOAD PUSH2 0x256 SWAP2 SWAP1 PUSH2 0x864 JUMP JUMPDEST TIMESTAMP LT PUSH2 0x2A2 JUMPI PUSH1 0x40 MLOAD PUSH3 0x461BCD PUSH1 0xE5 SHL DUP2 MSTORE PUSH1 0x20 PUSH1 0x4 DUP3 ADD MSTORE PUSH1 0x16 PUSH1 0x24 DUP3 ADD MSTORE PUSH22 0x14995B19585CD9481D1A5B595BDD5D081C185CDCD959 PUSH1 0x52 SHL PUSH1 0x44 DUP3 ADD MSTORE PUSH1 0x64 ADD JUMPDEST PUSH1 0x40 MLOAD DUP1 SWAP2 SUB SWAP1 REVERT JUMPDEST PUSH1 0x3 DUP1 SLOAD PUSH1 0xFF NOT AND PUSH1 0x1 SWAP1 DUP2 OR SWAP1 SWAP2 SSTORE SLOAD PUSH1 0x2 SLOAD PUSH1 0x40 MLOAD PUSH1 0x0 SWAP3 PUSH1 0x1 PUSH1 0x1 PUSH1 0xA0 SHL SUB AND SWAP2 SWAP1 DUP4 DUP2 DUP2 DUP2 DUP6 DUP8 GAS CALL SWAP3 POP POP POP RETURNDATASIZE DUP1 PUSH1 0x0 DUP2 EQ PUSH2 0x2FF JUMPI PUSH1 0x40 MLOAD SWAP2 POP PUSH1 0x1F NOT PUSH1 0x3F RETURNDATASIZE ADD AND DUP3 ADD PUSH1 0x40 MSTORE RETURNDATASIZE DUP3 MSTORE RETURNDATASIZE PUSH1 0x0 PUSH1 0x20 DUP5 ADD RETURNDATACOPY PUSH2 0x304 JUMP JUMPDEST PUSH1 0x60 SWAP2 POP JUMPDEST POP POP SWAP1 POP DUP1 PUSH2 0x347 JUMPI PUSH1 0x40 MLOAD PUSH3 0x461BCD PUSH1 0xE5 SHL DUP2 MSTORE PUSH1 0x20 PUSH1 0x4 DUP3 ADD MSTORE PUSH1 0xF PUSH1 0x24 DUP3 ADD MSTORE PUSH15 0x151C985B9CD9995C8819985A5B1959 PUSH1 0x8A SHL PUSH1 0x44 DUP3 ADD MSTORE PUSH1 0x64 ADD PUSH2 0x299 JUMP JUMPDEST PUSH1 0x1 SLOAD PUSH1 0x2 SLOAD PUSH1 0x40 MLOAD SWAP1 DUP2 MSTORE PUSH1 0x1 PUSH1 0x1 PUSH1 0xA0 SHL SUB SWAP1 SWAP2 AND SWAP1 PUSH32 0xB21FB52D5749B80F3182F8C6992236B5E5576681880914484D7F4C9B062E619E SWAP1 PUSH1 0x20 ADD JUMPDEST PUSH1 0x40 MLOAD DUP1 SWAP2 SUB SWAP1 LOG2 POP JUMP JUMPDEST PUSH1 0x1 SLOAD PUSH1 0x1 PUSH1 0x1 PUSH1 0xA0 SHL SUB AND CALLER EQ PUSH2 0x3BB JUMPI PUSH1 0x40 MLOAD PUSH4 0x6073237 PUSH1 0xE1 SHL DUP2 MSTORE PUSH1 0x4 ADD PUSH1 0x40 MLOAD DUP1 SWAP2 SUB SWAP1 REVERT JUMPDEST PUSH1 0x3 SLOAD PUSH1 0xFF AND ISZERO PUSH2 0x3DF JUMPI PUSH1 0x40 MLOAD PUSH4 0x195332A5 PUSH1 0xE0 SHL DUP2 MSTORE PUSH1 0x4 ADD PUSH1 0x40 MLOAD DUP1 SWAP2 SUB SWAP1 REVERT JUMPDEST PUSH1 0x6 SLOAD PUSH1 0x4 SLOAD PUSH2 0x3EF SWAP2 SWAP1 PUSH2 0x864 JUMP JUMPDEST TIMESTAMP LT PUSH2 0x435 JUMPI PUSH1 0x40 MLOAD PUSH3 0x461BCD PUSH1 0xE5 SHL DUP2 MSTORE PUSH1 0x20 PUSH1 0x4 DUP3 ADD MSTORE PUSH1 0x15 PUSH1 0x24 DUP3 ADD MSTORE PUSH21 0x1499599D5B99081D1A5B595BDD5D081C185CDCD959 PUSH1 0x5A SHL PUSH1 0x44 DUP3 ADD MSTORE PUSH1 0x64 ADD PUSH2 0x299 JUMP JUMPDEST PUSH1 0x3 DUP1 SLOAD PUSH1 0xFF NOT AND PUSH1 0x1 OR SWAP1 SSTORE PUSH1 0x0 DUP1 SLOAD PUSH1 0x2 SLOAD PUSH1 0x40 MLOAD PUSH1 0x1 PUSH1 0x1 PUSH1 0xA0 SHL SUB SWAP1 SWAP3 AND SWAP2 DUP4 DUP2 DUP2 DUP2 DUP6 DUP8 GAS CALL SWAP3 POP POP POP RETURNDATASIZE DUP1 PUSH1 0x0 DUP2 EQ PUSH2 0x490 JUMPI PUSH1 0x40 MLOAD SWAP2 POP PUSH1 0x1F NOT PUSH1 0x3F RETURNDATASIZE ADD AND DUP3 ADD PUSH1 0x40 MSTORE RETURNDATASIZE DUP3 MSTORE RETURNDATASIZE PUSH1 0x0 PUSH1 0x20 DUP5 ADD RETURNDATACOPY PUSH2 0x495 JUMP JUMPDEST PUSH1 0x60 SWAP2 POP JUMPDEST POP POP SWAP1 POP DUP1 PUSH2 0x4D6 JUMPI PUSH1 0x40 MLOAD PUSH3 0x461BCD PUSH1 0xE5 SHL DUP2 MSTORE PUSH1 0x20 PUSH1 0x4 DUP3 ADD MSTORE PUSH1 0xD PUSH1 0x24 DUP3 ADD MSTORE PUSH13 0x1499599D5B990819985A5B1959 PUSH1 0x9A SHL PUSH1 0x44 DUP3 ADD MSTORE PUSH1 0x64 ADD PUSH2 0x299 JUMP JUMPDEST PUSH1 0x0 SLOAD PUSH1 0x2 SLOAD PUSH1 0x40 MLOAD SWAP1 DUP2 MSTORE PUSH1 0x1 PUSH1 0x1 PUSH1 0xA0 SHL SUB SWAP1 SWAP2 AND SWAP1 PUSH32 0xD7DEE2702D63AD89917B6A4DA9981C90C4D24F8C2BDFD64C604ECAE57D8D0651 SWAP1 PUSH1 0x20 ADD PUSH2 0x385 JUMP JUMPDEST PUSH1 0x1 SLOAD PUSH1 0x1 PUSH1 0x1 PUSH1 0xA0 SHL SUB AND CALLER EQ PUSH2 0x543 JUMPI PUSH1 0x40 MLOAD PUSH4 0x6073237 PUSH1 0xE1 SHL DUP2 MSTORE PUSH1 0x4 ADD PUSH1 0x40 MLOAD DUP1 SWAP2 SUB SWAP1 REVERT JUMPDEST PUSH1 0x3 SLOAD PUSH1 0xFF AND ISZERO PUSH2 0x567 JUMPI PUSH1 0x40 MLOAD PUSH4 0x195332A5 PUSH1 0xE0 SHL DUP2 MSTORE PUSH1 0x4 ADD PUSH1 0x40 MLOAD DUP1 SWAP2 SUB SWAP1 REVERT JUMPDEST PUSH1 0x5 SLOAD PUSH1 0x4 SLOAD PUSH2 0x577 SWAP2 SWAP1 PUSH2 0x864 JUMP JUMPDEST TIMESTAMP LT ISZERO PUSH2 0x5C6 JUMPI PUSH1 0x40 MLOAD PUSH3 0x461BCD PUSH1 0xE5 SHL DUP2 MSTORE PUSH1 0x20 PUSH1 0x4 DUP3 ADD MSTORE PUSH1 0x1B PUSH1 0x24 DUP3 ADD MSTORE PUSH32 0x52656C656173652074696D656F7574206E6F7420726561636865640000000000 PUSH1 0x44 DUP3 ADD MSTORE PUSH1 0x64 ADD PUSH2 0x299 JUMP JUMPDEST PUSH1 0x3 DUP1 SLOAD PUSH1 0xFF NOT AND PUSH1 0x1 SWAP1 DUP2 OR SWAP1 SWAP2 SSTORE SLOAD PUSH1 0x2 SLOAD PUSH1 0x40 MLOAD PUSH1 0x0 SWAP3 PUSH1 0x1 PUSH1 0x1 PUSH1 0xA0 SHL SUB AND SWAP2 SWAP1 DUP4 DUP2 DUP2 DUP2 DUP6 DUP8 GAS CALL SWAP3 POP POP POP RETURNDATASIZE DUP1 PUSH1 0x0 DUP2 EQ PUSH2 0x623 JUMPI PUSH1 0x40 MLOAD SWAP2 POP PUSH1 0x1F NOT PUSH1 0x3F RETURNDATASIZE ADD AND DUP3 ADD PUSH1 0x40 MSTORE RETURNDATASIZE DUP3 MSTORE RETURNDATASIZE PUSH1 0x0 PUSH1 0x20 DUP5 ADD RETURNDATACOPY PUSH2 0x628 JUMP JUMPDEST PUSH1 0x60 SWAP2 POP JUMPDEST POP POP SWAP1 POP DUP1 PUSH2 0x347 JUMPI PUSH1 0x40 MLOAD PUSH3 0x461BCD PUSH1 0xE5 SHL DUP2 MSTORE PUSH1 0x20 PUSH1 0x4 DUP3 ADD MSTORE PUSH1 0x13 PUSH1 0x24 DUP3 ADD MSTORE PUSH19 0x105D5D1BC81C995B19585CD94819985A5B1959 PUSH1 0x6A SHL PUSH1 0x44 DUP3 ADD MSTORE PUSH1 0x64 ADD PUSH2 0x299 JUMP JUMPDEST PUSH1 0x0 SLOAD PUSH1 0x1 PUSH1 0x1 PUSH1 0xA0 SHL SUB AND CALLER EQ PUSH2 0x69A JUMPI PUSH1 0x40 MLOAD PUSH4 0x1862871B PUSH1 0xE0 SHL DUP2 MSTORE PUSH1 0x4 ADD PUSH1 0x40 MLOAD DUP1 SWAP2 SUB SWAP1 REVERT JUMPDEST PUSH1 0x3 SLOAD PUSH1 0xFF AND ISZERO PUSH2 0x6BE JUMPI PUSH1 0x40 MLOAD PUSH4 0x195332A5 PUSH1 0xE0 SHL DUP2 MSTORE PUSH1 0x4 ADD PUSH1 0x40 MLOAD DUP1 SWAP2 SUB SWAP1 REVERT JUMPDEST PUSH1 0x6 SLOAD PUSH1 0x4 SLOAD PUSH2 0x6CE SWAP2 SWAP1 PUSH2 0x864 JUMP JUMPDEST TIMESTAMP LT ISZERO PUSH2 0x71D JUMPI PUSH1 0x40 MLOAD PUSH3 0x461BCD PUSH1 0xE5 SHL DUP2 MSTORE PUSH1 0x20 PUSH1 0x4 DUP3 ADD MSTORE PUSH1 0x1A PUSH1 0x24 DUP3 ADD MSTORE PUSH32 0x526566756E642074696D656F7574206E6F742072656163686564000000000000 PUSH1 0x44 DUP3 ADD MSTORE PUSH1 0x64 ADD PUSH2 0x299 JUMP JUMPDEST PUSH1 0x3 DUP1 SLOAD PUSH1 0xFF NOT AND PUSH1 0x1 OR SWAP1 SSTORE PUSH1 0x0 DUP1 SLOAD PUSH1 0x2 SLOAD PUSH1 0x40 MLOAD PUSH1 0x1 PUSH1 0x1 PUSH1 0xA0 SHL SUB SWAP1 SWAP3 AND SWAP2 DUP4 DUP2 DUP2 DUP2 DUP6 DUP8 GAS CALL SWAP3 POP POP POP RETURNDATASIZE DUP1 PUSH1 0x0 DUP2 EQ PUSH2 0x778 JUMPI PUSH1 0x40 MLOAD SWAP2 POP PUSH1 0x1F NOT PUSH1 0x3F RETURNDATASIZE ADD AND DUP3 ADD PUSH1 0x40 MSTORE RETURNDATASIZE DUP3 MSTORE RETURNDATASIZE PUSH1 0x0 PUSH1 0x20 DUP5 ADD RETURNDATACOPY PUSH2 0x77D JUMP JUMPDEST PUSH1 0x60 SWAP2 POP JUMPDEST POP POP SWAP1 POP DUP1 PUSH2 0x4D6 JUMPI PUSH1 0x40 MLOAD PUSH3 0x461BCD PUSH1 0xE5 SHL DUP2 MSTORE PUSH1 0x20 PUSH1 0x4 DUP3 ADD MSTORE PUSH1 0x12 PUSH1 0x24 DUP3 ADD MSTORE PUSH18 0x105D5D1BC81C99599D5B990819985A5B1959 PUSH1 0x72 SHL PUSH1 0x44 DUP3 ADD MSTORE PUSH1 0x64 ADD PUSH2 0x299 JUMP JUMPDEST PUSH1 0x0 SLOAD PUSH1 0x1 PUSH1 0x1 PUSH1 0xA0 SHL SUB AND CALLER EQ PUSH2 0x7EE JUMPI PUSH1 0x40 MLOAD PUSH4 0x1862871B PUSH1 0xE0 SHL DUP2 MSTORE PUSH1 0x4 ADD PUSH1 0x40 MLOAD DUP1 SWAP2 SUB SWAP1 REVERT JUMPDEST PUSH1 0x3 SLOAD PUSH1 0xFF AND ISZERO PUSH2 0x812 JUMPI PUSH1 0x40 MLOAD PUSH4 0x195332A5 PUSH1 0xE0 SHL DUP2 MSTORE PUSH1 0x4 ADD PUSH1 0x40 MLOAD DUP1 SWAP2 SUB SWAP1 REVERT JUMPDEST CALLVALUE PUSH1 0x2 PUSH1 0x0 DUP3 DUP3 SLOAD PUSH2 0x824 SWAP2 SWAP1 PUSH2 0x864 JUMP JUMPDEST SWAP1 SWAP2 SSTORE POP POP TIMESTAMP PUSH1 0x4 SSTORE PUSH1 0x40 MLOAD CALLVALUE DUP2 MSTORE CALLER SWAP1 PUSH32 0x2DA466A7B24304F47E87FA2E1E5A81B9831CE54FEC19055CE277CA2F39BA42C4 SWAP1 PUSH1 0x20 ADD PUSH1 0x40 MLOAD DUP1 SWAP2 SUB SWAP1 LOG2 JUMP JUMPDEST DUP1 DUP3 ADD DUP1 DUP3 GT ISZERO PUSH2 0x885 JUMPI PUSH4 0x4E487B71 PUSH1 0xE0 SHL PUSH1 0x0 MSTORE PUSH1 0x11 PUSH1 0x4 MSTORE PUSH1 0x24 PUSH1 0x0 REVERT JUMPDEST SWAP3 SWAP2 POP POP JUMP INVALID LOG2 PUSH5 0x6970667358 0x22 SLT KECCAK256 0xCF PUSH27 0x2B70B9B249F5689E9E73BEDEB2DF8DF60B1A3EF95A6684083ED859 0xEF SLOAD PUSH31 0x64736F6C634300081400330000000000000000000000000000000000000000 "},"gasEstimates":{"creation":{"codeDepositCost":"448200","executionCost":"infinite","totalCost":"infinite"},"external":{"amount()":"2284","approveRelease()":"infinite","autoRefund()":"infinite","autoRelease()":"infinite","deposit()":"52292","depositTimestamp()":"2395","driver()":"2404","isCompleted()":"2420","passenger()":"2381","refund()":"infinite","refundTimeout()":"2372","releaseTimeout()":"2307"}},"methodIdentifiers":{"amount()":"aa8c217c","approveRelease()":"1e31a6dd","autoRefund()":"b723ae75","autoRelease()":"a36693b1","deposit()":"d0e30db0","depositTimestamp()":"a5854123","driver()":"6ecc5d62","isCompleted()":"fa391c64","passenger()":"c11ae86f","refund()":"590e1ae3","refundTimeout()":"dba26783","releaseTimeout()":"3a10ec1a"}},"storageLayout":{"storage":[{"astId":3,"contract":"contract/Payement.sol:Escrow","label":"passenger","offset":0,"slot":"0","type":"t_address"},{"astId":5,"contract":"contract/Payement.sol:Escrow","label":"driver","offset":0,"slot":"1","type":"t_address"},{"astId":7,"contract":"contract/Payement.sol:Escrow","label":"amount","offset":0,"slot":"2","type":"t_uint256"},{"astId":9,"contract":"contract/Payement.sol:Escrow","label":"isCompleted","offset":0,"slot":"3","type":"t_bool"},{"astId":11,"contract":"contract/Payement.sol:Escrow","label":"depositTimestamp","offset":0,"slot":"4","type":"t_uint256"},{"astId":13,"contract":"contract/Payement.sol:Escrow","label":"releaseTimeout","offset":0,"slot":"5","type":"t_uint256"},{"astId":15,"contract":"contract/Payement.sol:Escrow","label":"refundTimeout","offset":0,"slot":"6","type":"t_uint256"}],"types":{"t_address":{"encoding":"inplace","label":"address","numberOfBytes":"20"},"t_bool":{"encoding":"inplace","label":"bool","numberOfBytes":"1"},"t_uint256":{"encoding":"inplace","label":"uint256","numberOfBytes":"32"}}},"userdoc":{"kind":"user","methods":{},"version":1}}}}