{
  "_format": "hh-sol-artifact-1",
  "contractName": "Escrow",
  "sourceName": "contracts/Payement.sol",
  "abi": [
    {
      "inputs": [
        {
          "internalType": "address",
          "name": "_driver",
          "type": "address"
        }
      ],
      "stateMutability": "nonpayable",
      "type": "constructor"
    },
    {
      "inputs": [],
      "name": "AlreadyCompleted",
      "type": "error"
    },
    {
      "inputs": [],
      "name": "NotDriver",
      "type": "error"
    },
    {
      "inputs": [],
      "name": "NotPassenger",
      "type": "error"
    },
    {
      "anonymous": false,
      "inputs": [
        {
          "indexed": true,
          "internalType": "address",
          "name": "passenger",
          "type": "address"
        },
        {
          "indexed": false,
          "internalType": "uint256",
          "name": "amount",
          "type": "uint256"
        }
      ],
      "name": "Deposited",
      "type": "event"
    },
    {
      "anonymous": false,
      "inputs": [
        {
          "indexed": true,
          "internalType": "address",
          "name": "passenger",
          "type": "address"
        },
        {
          "indexed": false,
          "internalType": "uint256",
          "name": "amount",
          "type": "uint256"
        }
      ],
      "name": "Refunded",
      "type": "event"
    },
    {
      "anonymous": false,
      "inputs": [
        {
          "indexed": true,
          "internalType": "address",
          "name": "driver",
          "type": "address"
        },
        {
          "indexed": false,
          "internalType": "uint256",
          "name": "amount",
          "type": "uint256"
        }
      ],
      "name": "Released",
      "type": "event"
    },
    {
      "inputs": [],
      "name": "amount",
      "outputs": [
        {
          "internalType": "uint256",
          "name": "",
          "type": "uint256"
        }
      ],
      "stateMutability": "view",
      "type": "function"
    },
    {
      "inputs": [],
      "name": "approveRelease",
      "outputs": [],
      "stateMutability": "nonpayable",
      "type": "function"
    },
    {
      "inputs": [],
      "name": "deposit",
      "outputs": [],
      "stateMutability": "payable",
      "type": "function"
    },
    {
      "inputs": [],
      "name": "driver",
      "outputs": [
        {
          "internalType": "address",
          "name": "",
          "type": "address"
        }
      ],
      "stateMutability": "view",
      "type": "function"
    },
    {
      "inputs": [],
      "name": "isCompleted",
      "outputs": [
        {
          "internalType": "bool",
          "name": "",
          "type": "bool"
        }
      ],
      "stateMutability": "view",
      "type": "function"
    },
    {
      "inputs": [],
      "name": "passenger",
      "outputs": [
        {
          "internalType": "address",
          "name": "",
          "type": "address"
        }
      ],
      "stateMutability": "view",
      "type": "function"
    },
    {
      "inputs": [],
      "name": "refund",
      "outputs": [],
      "stateMutability": "nonpayable",
      "type": "function"
    }
  ],
  "bytecode": "0x608060405234801561001057600080fd5b50604051610b2e380380610b2e8339818101604052810190610032919061011c565b336000806101000a81548173ffffffffffffffffffffffffffffffffffffffff021916908373ffffffffffffffffffffffffffffffffffffffff16021790555080600160006101000a81548173ffffffffffffffffffffffffffffffffffffffff021916908373ffffffffffffffffffffffffffffffffffffffff16021790555050610149565b600080fd5b600073ffffffffffffffffffffffffffffffffffffffff82169050919050565b60006100e9826100be565b9050919050565b6100f9816100de565b811461010457600080fd5b50565b600081519050610116816100f0565b92915050565b600060208284031215610132576101316100b9565b5b600061014084828501610107565b91505092915050565b6109d6806101586000396000f3fe6080604052600436106100705760003560e01c8063aa8c217c1161004e578063aa8c217c146100ce578063c11ae86f146100f9578063d0e30db014610124578063fa391c641461012e57610070565b80631e31a6dd14610075578063590e1ae31461008c5780636ecc5d62146100a3575b600080fd5b34801561008157600080fd5b5061008a610159565b005b34801561009857600080fd5b506100a1610385565b005b3480156100af57600080fd5b506100b86105b0565b6040516100c59190610789565b60405180910390f35b3480156100da57600080fd5b506100e36105d6565b6040516100f091906107bd565b60405180910390f35b34801561010557600080fd5b5061010e6105dc565b60405161011b9190610789565b60405180910390f35b61012c610600565b005b34801561013a57600080fd5b50610143610735565b60405161015091906107f3565b60405180910390f35b60008054906101000a900473ffffffffffffffffffffffffffffffffffffffff1673ffffffffffffffffffffffffffffffffffffffff163373ffffffffffffffffffffffffffffffffffffffff16146101de576040517f1862871b00000000000000000000000000000000000000000000000000000000815260040160405180910390fd5b600360009054906101000a900460ff1615610225576040517f195332a500000000000000000000000000000000000000000000000000000000815260040160405180910390fd5b6001600360006101000a81548160ff0219169083151502179055506000600160009054906101000a900473ffffffffffffffffffffffffffffffffffffffff1673ffffffffffffffffffffffffffffffffffffffff1660025460405161028a9061083f565b60006040518083038185875af1925050503d80600081146102c7576040519150601f19603f3d011682016040523d82523d6000602084013e6102cc565b606091505b5050905080610310576040517f08c379a0000000000000000000000000000000000000000000000000000000008152600401610307906108b1565b60405180910390fd5b600160009054906101000a900473ffffffffffffffffffffffffffffffffffffffff1673ffffffffffffffffffffffffffffffffffffffff167fb21fb52d5749b80f3182f8c6992236b5e5576681880914484d7f4c9b062e619e60025460405161037a91906107bd565b60405180910390a250565b600160009054906101000a900473ffffffffffffffffffffffffffffffffffffffff1673ffffffffffffffffffffffffffffffffffffffff163373ffffffffffffffffffffffffffffffffffffffff161461040c576040517f0c0e646e00000000000000000000000000000000000000000000000000000000815260040160405180910390fd5b600360009054906101000a900460ff1615610453576040517f195332a500000000000000000000000000000000000000000000000000000000815260040160405180910390fd5b6001600360006101000a81548160ff02191690831515021790555060008060009054906101000a900473ffffffffffffffffffffffffffffffffffffffff1673ffffffffffffffffffffffffffffffffffffffff166002546040516104b79061083f565b60006040518083038185875af1925050503d80600081146104f4576040519150601f19603f3d011682016040523d82523d6000602084013e6104f9565b606091505b505090508061053d576040517f08c379a00000000000000000000000000000000000000000000000000000000081526004016105349061091d565b60405180910390fd5b60008054906101000a900473ffffffffffffffffffffffffffffffffffffffff1673ffffffffffffffffffffffffffffffffffffffff167fd7dee2702d63ad89917b6a4da9981c90c4d24f8c2bdfd64c604ecae57d8d06516002546040516105a591906107bd565b60405180910390a250565b600160009054906101000a900473ffffffffffffffffffffffffffffffffffffffff1681565b60025481565b60008054906101000a900473ffffffffffffffffffffffffffffffffffffffff1681565b60008054906101000a900473ffffffffffffffffffffffffffffffffffffffff1673ffffffffffffffffffffffffffffffffffffffff163373ffffffffffffffffffffffffffffffffffffffff1614610685576040517f1862871b00000000000000000000000000000000000000000000000000000000815260040160405180910390fd5b600360009054906101000a900460ff16156106cc576040517f195332a500000000000000000000000000000000000000000000000000000000815260040160405180910390fd5b34600260008282546106de919061096c565b925050819055503373ffffffffffffffffffffffffffffffffffffffff167f2da466a7b24304f47e87fa2e1e5a81b9831ce54fec19055ce277ca2f39ba42c43460405161072b91906107bd565b60405180910390a2565b600360009054906101000a900460ff1681565b600073ffffffffffffffffffffffffffffffffffffffff82169050919050565b600061077382610748565b9050919050565b61078381610768565b82525050565b600060208201905061079e600083018461077a565b92915050565b6000819050919050565b6107b7816107a4565b82525050565b60006020820190506107d260008301846107ae565b92915050565b60008115159050919050565b6107ed816107d8565b82525050565b600060208201905061080860008301846107e4565b92915050565b600081905092915050565b50565b600061082960008361080e565b915061083482610819565b600082019050919050565b600061084a8261081c565b9150819050919050565b600082825260208201905092915050565b7f5472616e73666572206661696c65640000000000000000000000000000000000600082015250565b600061089b600f83610854565b91506108a682610865565b602082019050919050565b600060208201905081810360008301526108ca8161088e565b9050919050565b7f526566756e64206661696c656400000000000000000000000000000000000000600082015250565b6000610907600d83610854565b9150610912826108d1565b602082019050919050565b60006020820190508181036000830152610936816108fa565b9050919050565b7f4e487b7100000000000000000000000000000000000000000000000000000000600052601160045260246000fd5b6000610977826107a4565b9150610982836107a4565b925082820190508082111561099a5761099961093d565b5b9291505056fea264697066735822122035ced67c6711c3928facd92b9d22ab9ae85f5c9a6168d105cc41e12dbb73ad0164736f6c634300081c0033",
  "linkReferences": {},
  "deployedLinkReferences": {}
}